:020000040800F2
:1000000000000120BDA60008A1250008AF250008BA
:10001000B5250008BB250008C12500080000000028
:10002000000000000000000000000000C7250008DC
:10003000D525000800000000E3250008F125000890
:100040000DA700080DA700080DA700080DA70008C0
:100050000DA700080DA700080DA700080DA70008B0
:10006000FD2500080DA700080B2600080DA70008B5
:100070000DA700080DA700080DA700080DA7000890
:100080000DA700080DA700080DA700080DA7000880
:100090000DA700080DA700080DA700080DA7000870
:1000A0000DA700080DA700080DA700080DA7000860
:1000B0001926000800000000000000000DA700083D
:1000C0000DA700080DA700080DA700080DA7000840
:1000D0000DA700080DA700080DA700080DA7000830
:1000E0000DA700080DA70008000000000000000098
:1000F0000000000000000000000000000000000000
:10010000000000000DA70008000000000DA7000877
:1001100000000000000000000DA700080DA7000867
:100120000DA700080DA700080DA700080DA70008DF
:100130000DA7000800000000000000000000000003
:100140000DA700080DA700080DA700082D26000820
:100150000DA700080DA700080DA700080DA70008AF
:100160000DA700080DA700080DA70008000000005B
:100170000DA700080DA700080DA70008000000004B
:100180000DA700080DA700080DA70008000000003B
:1001900010B5054C237833B9044B13B10448AFF3C1
:1001A00000800123237010BDF00300200000000038
:1001B0004CD2000808B5034B1BB103490348AFF309
:1001C000008008BD00000000F40300204CD20008AD
:1001D000034613F8012B002AFBD1181A0138704787
:1001E00001F0FF01102A2BDB10F0070F08D010F8E8
:1001F000013B013A8B422DD010F0070F42B3F6D1EC
:10020000F0B441EA012141EA014122F007047FF004
:1002100000070023F0E80256083C85EA010586EA5B
:10022000010685FA47F5A3FA87F586FA47F6A5FA97
:1002300087F68EB9EED1F0BC01F0FF0102F00702A3
:1002400032B110F8013B013A83EA010313B1F8D14E
:100250000020704701387047002D06BF354603382F
:10026000073815F0010F07D1013015F4807F02BF68
:10027000013015F4C03F0130F0BC0138704700BFB9
:1002800081F0004102E000BF83F0004330B54FEA47
:1002900041044FEA430594EA050F08BF90EA020FB4
:1002A0001FBF54EA000C55EA020C7FEA645C7FEA47
:1002B000655C00F0E2804FEA5454D4EB5555B8BF6A
:1002C0006D420CDD2C4480EA020281EA030382EADB
:1002D000000083EA010180EA020281EA0303362D6D
:1002E00088BF30BD11F0004F4FEA01314FF4801C40
:1002F0004CEA113102D0404261EB410113F0004F52
:100300004FEA03334CEA133302D0524263EB430308
:1003100094EA050F00F0A780A4F10104D5F1200EA6
:100320000DDB02FA0EFC22FA05F2801841F1000101
:1003300003FA0EF2801843FA05F359410EE0A5F1D5
:1003400020050EF1200E012A03FA0EFC28BF4CF006
:10035000020C43FA05F3C01851EBE37101F00045BC
:1003600007D54FF0000EDCF1000C7EEB00006EEBC9
:100370000101B1F5801F1BD3B1F5001F0CD3490853
:100380005FEA30004FEA3C0C04F101044FEA4452AA
:1003900012F5800F80F09A80BCF1004F08BF5FEA31
:1003A000500C50F1000041EB045141EA050130BD11
:1003B0005FEA4C0C404141EB0101013C28BFB1F523
:1003C000801FE9D291F0000F04BF01460020B1FA6E
:1003D00081F308BF2033A3F10B03B3F120020CDA41
:1003E0000C3208DD02F1140CC2F10C0201FA0CF01F
:1003F00021FA02F10CE002F11402D8BFC2F1200C84
:1004000001FA02F120FA0CFCDCBF41EA0C01904039
:10041000E41AA2BF01EB0451294330BD6FEA040482
:100420001F3C1CDA0C340EDC04F11404C4F120026D
:1004300020FA04F001FA02F340EA030021FA04F37F
:1004400045EA030130BDC4F10C04C4F1200220FAD6
:1004500002F001FA04F340EA0300294630BD21FA14
:1004600004F0294630BD94F0000F83F4801306BFDA
:1004700081F480110134013D4EE77FEA645C18BFCE
:100480007FEA655C29D094EA050F08BF90EA020F65
:1004900005D054EA000C04BF1946104630BD91EA5D
:1004A000030F1EBF0021002030BD5FEA545C05D160
:1004B0004000494128BF41F0004130BD14F580049F
:1004C0003CBF01F5801130BD01F0004545F0FE4113
:1004D00041F470014FF0000030BD7FEA645C1ABF48
:1004E000194610467FEA655C1CBF0B46024650EA7F
:1004F000013406BF52EA033591EA030F41F40021AB
:1005000030BD00BF90F0000F04BF0021704730B530
:100510004FF4806404F132044FF000054FF0000105
:1005200050E700BF90F0000F04BF0021704730B5C6
:100530004FF4806404F1320410F0004548BF40429B
:100540004FF000013EE700BF42004FEAE2014FEAF0
:1005500031014FEA02701FBF12F07F4393F07F4FCB
:1005600081F06051704732F07F4208BF704793F0CE
:100570007F4F04BF41F40021704730B54FF46074E1
:1005800001F0004521F000411CE700BF50EA0102E4
:1005900008BF704730B54FF000050AE050EA01028D
:1005A00008BF704730B511F0004502D5404261EBFD
:1005B00041014FF4806404F132045FEA915C3FF43E
:1005C000D8AE4FF003025FEADC0C18BF03325FEADB
:1005D000DC0C18BF033202EBDC02C2F1200300FA8C
:1005E00003FC20FA02F001FA03FE40EA0E0021FAB1
:1005F00002F11444BDE600BF70B54FF0FF0C4CF49F
:10060000E06C1CEA11541DBF1CEA135594EA0C0F50
:1006100095EA0C0F00F0DEF82C4481EA030621EA8B
:100620004C5123EA4C5350EA013518BF52EA0335C6
:1006300041F4801143F4801338D0A0FB02CE4FF078
:100640000005E1FB02E506F00042E0FB03E54FF0A8
:100650000006E1FB03569CF0000F18BF4EF0010EA0
:10066000A4F1FF04B6F5007F64F5407404D25FEA9C
:100670004E0E6D4146EB060642EAC62141EA55514F
:100680004FEAC52040EA5E504FEACE2EB4F1FD0C91
:1006900088BFBCF5E06F1ED8BEF1004F08BF5FEA0F
:1006A000500E50F1000041EB045170BD06F00046C1
:1006B00046EA010140EA020081EA0301B4EB5C046E
:1006C000C2BFD4EB0C0541EA045170BD41F4801166
:1006D0004FF0000E013C00F3AB8014F1360FDEBF8B
:1006E000002001F0004170BDC4F10004203C35DA67
:1006F0000C341BDC04F11404C4F1200500FA05F3EA
:1007000020FA04F001FA05F240EA020001F000428A
:1007100021F0004110EBD37021FA04F642EB060100
:100720005EEA430E08BF20EAD37070BDC4F10C042A
:10073000C4F1200500FA04F320FA05F001FA04F2EE
:1007400040EA020001F0004110EBD37041F10001DA
:100750005EEA430E08BF20EAD37070BDC4F12005E5
:1007600000FA05F24EEA020E20FA04F301FA05F24D
:1007700043EA020321FA04F001F0004121FA04F2F5
:1007800020EA020000EBD3705EEA430E08BF20EAC5
:10079000D37070BD94F0000F0FD101F000464000FF
:1007A00041EB010111F4801F08BF013CF7D041EA81
:1007B000060195F0000F18BF704703F00046520085
:1007C00043EB030313F4801F08BF013DF7D043EA56
:1007D0000603704794EA0C0F0CEA135518BF95EA0C
:1007E0000C0F0CD050EA410618BF52EA4306D1D193
:1007F00081EA030101F000414FF0000070BD50EAB2
:10080000410606BF1046194652EA430619D094EA3B
:100810000C0F02D150EA013613D195EA0C0F05D125
:1008200052EA03361CBF104619460AD181EA030179
:1008300001F0004141F0FE4141F470014FF0000031
:1008400070BD41F0FE4141F4780170BD70B54FF0CC
:10085000FF0C4CF4E06C1CEA11541DBF1CEA13554C
:1008600094EA0C0F95EA0C0F00F0A7F8A4EB05042E
:1008700081EA030E52EA03354FEA013100F0888025
:100880004FEA03334FF0805545EA131343EA1263EE
:100890004FEA022245EA111545EA10654FEA0026A3
:1008A0000EF000419D4208BF964244F1FD0404F55C
:1008B000407402D25B084FEA3202B61A65EB0305B8
:1008C0005B084FEA32024FF480104FF4002CB6EB75
:1008D000020E75EB030E22BFB61A754640EA0C00F5
:1008E0005B084FEA3202B6EB020E75EB030E22BF35
:1008F000B61A754640EA5C005B084FEA3202B6EB76
:10090000020E75EB030E22BFB61A754640EA9C0034
:100910005B084FEA3202B6EB020E75EB030E22BF04
:10092000B61A754640EADC0055EA060E18D04FEAC2
:10093000051545EA16754FEA06164FEAC30343EA62
:1009400052734FEAC2025FEA1C1CC0D111F4801F2F
:100950000BD141EA00014FF000004FF0004CB6E728
:1009600011F4801F04BF01430020B4F1FD0C88BFC7
:10097000BCF5E06F3FF6AFAEB5EB030C04BFB6EBD2
:10098000020C5FEA500C50F1000041EB045170BDC5
:100990000EF0004E4EEA113114EB5C04C2BFD4EBF2
:1009A0000C0541EA045170BD41F480114FF0000E76
:1009B000013C90E645EA060E8DE60CEA135594EAF2
:1009C0000C0F08BF95EA0C0F3FF43BAF94EA0C0FF5
:1009D0000AD150EA01347FF434AF95EA0C0F7FF46A
:1009E00025AF104619462CE795EA0C0F06D152EABE
:1009F00003353FF4FDAE1046194622E750EA4106A2
:100A000018BF52EA43067FF4C5AE50EA41047FF4B2
:100A10000DAF52EA43057FF4EBAE12E74FF0FF3C17
:100A200006E000BF4FF0010C02E000BF4FF0010CE8
:100A30004DF804CD4FEA410C7FEA6C5C4FEA430C61
:100A400018BF7FEA6C5C1BD001B050EA410C0CBFB0
:100A500052EA430C91EA030F02BF90EA020F002012
:100A6000704710F1000F91EA030F58BF994208BF79
:100A700090422CBFD8176FEAE37040F00100704736
:100A80004FEA410C7FEA6C5C02D150EA013C07D18D
:100A90004FEA430C7FEA6C5CD6D152EA033CD3D0D8
:100AA0005DF8040B704700BF8446104662468C46D2
:100AB0001946634600E000BF01B5FFF7B7FF002805
:100AC00048BF10F1000F01BD4DF808EDFFF7F4FF2E
:100AD0000CBF012000205DF808FB00BF4DF808EDB9
:100AE000FFF7EAFF34BF012000205DF808FB00BFDC
:100AF0004DF808EDFFF7E0FF94BF012000205DF8FE
:100B000008FB00BF4DF808EDFFF7CEFF94BF0120B2
:100B100000205DF808FB00BF4DF808EDFFF7C4FFAB
:100B200034BF012000205DF808FB00BF4FEA410CF4
:100B30007FEA6C5C02D150EA013C0AD14FEA430CD7
:100B40007FEA6C5C02D152EA033C02D14FF0000014
:100B500070474FF0010070474FEA410212F5001252
:100B600015D211D56FF47873B3EB625212D94FEAF4
:100B7000C12343F0004343EA505311F0004F23FADE
:100B800002F018BF404270474FF00000704750EA33
:100B9000013005D111F0004008BF6FF000407047F0
:100BA0004FF00000704700BF4A0011D212F500124A
:100BB00011D20DD56FF47873B3EB62520ED44FEAB5
:100BC000C12343F0004343EA505323FA02F0704735
:100BD0004FF00000704750EA013002D14FF0FF3073
:100BE00070474FF00000704738B5002200230446DC
:100BF0000D46FFF773FF28B920462946BDE8384067
:100C000000F00AB8204605F1004100F005F8404226
:100C100061EB410138BD00BFD0B50C4B0022064648
:100C20000F46FFF7E9FCFFF7BFFF0446FFF76AFC3A
:100C3000074B0022FFF7E0FC02460B4630463946E0
:100C4000FFF722FBFFF7B0FF2146D0BD0000F03DCB
:100C50000000F04180B582B000AF786000BF3B1D5E
:100C60000121184601F076FC0346002BF7D17B6882
:100C700018460837BD4680BDF0B583B002AF04F01A
:100C80002DFA00F09DF800F0A7F900F015F900F03A
:100C900051F900F009FF40F6B83004F08FFA3C48F3
:100CA0000AF066FA3B4B1B78042BFBD801A252F8E2
:100CB00023F000BFC90C0008E30C0008A50C0008D5
:100CC000010D00086B0D000833480AF051FA0120AD
:100CD00000F01CFA082006F03AFD2E4B01221A7093
:100CE00055E0002220212D4805F01CFE002009F0CF
:100CF00091F9002009F04CF9264B02221A7046E0C7
:100D000004F050FA034618464FF00001244BD3E993
:100D10000023841A61EB0305224BC3E90045224BF3
:100D20001B881946214BD3E900232148C9000144FF
:100D3000C1E900231C4B1B881E461C4BD3E9000154
:100D4000184BD3E90023CDE9002302460B46314678
:100D500018480AF087F9144B1B8801339AB2124BDA
:100D60001A800C4B01221A7011E0082006F0FDFCDD
:100D700011480AF0FDF9002000F0C8F90F4B1B885C
:100D8000184600F00BFD034B00221A7000BF89E7E4
:100D900068D20008800400208CD2000800040048BB
:100DA00070040020780400208204002068040020E1
:100DB000A807002098D20008C4D200088E000020A6
:100DC00080B5AEB000AF07F174034422002118468D
:100DD00009F0D6FC07F1600300221A605A609A609D
:100DE000DA601A613B4660220021184609F0C8FC0F
:100DF00001237B674FF48033BB670223C7F89C3025
:100E00000323C7F8A0300123C7F8A4302823C7F86C
:100E1000A8300723C7F8AC300223C7F8B03004234A
:100E2000C7F8B43007F17403184604F0E9F9034633
:100E3000002B01D000F030FE0F233B6603237B66BE
:100E40000023BB660023FB6600233B6707F16003BA
:100E50000421184604F0F4FD0346002B01D000F0F5
:100E60001BFE4FF400533B604FF08063BB640323D1
:100E70007B600123BB600C23FB6007233B610223E3
:100E80007B610223BB614FF48013FB613B46184634
:100E900004F0A4FF0346002B01D000F0FDFD4FF449
:100EA000007006F0D3FA0346002B01D000F0F4FDE9
:100EB00000BFB837BD4680BD80B500AF1B4B1C4A94
:100EC0001A601A4B4FF482725A60184B00229A60D3
:100ED000164B4FF4E062DA60144B00221A61134B98
:100EE00000225A61114B4FF400729A610F4B282275
:100EF000DA610E4B00221A620C4B00225A620B4B35
:100F000000229A62094B0722DA62084B00221A6318
:100F1000064B00225A63054805F034FD0346002BBA
:100F200001D000F0B9FD00BF80BD00BF0007002068
:100F30000030014080B588B000AF07F110030022F7
:100F40001A605A609A60DA603B1D00221A605A608B
:100F50009A601F4B4FF080421A601D4B40F21F32C7
:100F60005A601B4B00229A60194B1A4ADA60184BE0
:100F700000221A61164B00229A61154803F0BEFC4C
:100F80000346002B01D000F087FD4FF480533B61F6
:100F900007F1100319460E4803F025FE0346002B07
:100FA00001D000F079FD00237B600023FB603B1D36
:100FB0001946074804F00EF80346002B01D000F054
:100FC0006BFD034803F0C6FC00BF2037BD4680BD63
:100FD0006407002000286BEE80B588B000AF07F1F1
:100FE0000C0300221A605A609A60DA601A61444B5E
:100FF000DB6C434A43F08003D364414BDB6C03F06A
:101000008003BB60BB683E4BDB6C3D4A43F0010391
:10101000D3643B4BDB6C03F001037B607B68384B94
:10102000DB6C374A43F00203D364354BDB6C03F0CF
:1010300002033B603B68002208214FF0904005F01E
:1010400071FC012284212F4805F06CFC00226021F4
:101050002C4805F067FC0423FB602B4B3B6102230B
:101060007B6107F10C0319464FF0904005F0EEF953
:101070000823FB6011233B6100237B610023BB61DC
:1010800007F10C0319464FF0904005F0DFF9C42337
:10109000FB6001233B6100237B610223BB6107F1FD
:1010A0000C031946174805F0D1F91023FB60164BC5
:1010B0003B6100237B6107F10C031946114805F0E1
:1010C000C5F92023FB6001233B6100237B610023E2
:1010D000BB6107F10C0319460A4805F0B7F9002275
:1010E00002210A2006F017FB0A2006F030FB00223E
:1010F0000421082006F00FFB00BF2037BD4680BD4D
:1011000000100240000400480000111080B582B0B9
:1011100000AF0346FB71614805F0BEFC5F4B28221F
:10112000DA615E4805F02EFC002009F083F909F031
:101130005FF95B4809F0F6F94FF4FA7004F03EF8F5
:10114000012007F003FF0346B3F1FF3F35D15548B7
:101150000AF00EF801222021534805F0E3FB4FF47A
:10116000C87004F02BF8002220214F4805F0DAFB6C
:101170004FF4C87004F022F8012220214A4805F0FB
:10118000D1FB4FF4C87004F019F800222021464822
:1011900005F0C8FB4FF4C87004F010F801222021BC
:1011A000414805F0BFFB4FF4C87004F007F8002277
:1011B00020213D4805F0B6FB14E03C4809F0D8FF7B
:1011C00001222021384805F0ADFB4FF4C87003F030
:1011D000F5FF00222021344805F0A4FB4FF4C8702D
:1011E00003F0ECFF2D4805F057FC2C4B0822DA6188
:1011F0002A4805F0C7FB2E4B1B78002B03D12D4846
:1012000008F010F811E02A4B1B78012B03D12A4873
:1012100008F008F809E0264B1B78022B03D1274879
:1012200008F000F801E000F037FCFB79DBB2002B9E
:1012300009D0234B234A2449244808F0F5FB012117
:10124000234808F027FF44F2340008F055F944F22F
:10125000340008F061F9012008F0F2FCFB79DBB200
:1012600083F00103DBB2002B07D04FF4967008F037
:10127000BFFB44F6206008F0CDFE002008F08AFB9A
:10128000144B4FF01F325A60124BC2221A70114891
:1012900007F0B1FF00BF0837BD4680BD0007002042
:1012A000699A0008D4D2000800040048E8D2000877
:1012B0008C00002018000020000000200C000020FE
:1012C0007117000845170008691400085314000836
:1012D00080D02304F8060020B0B586B000AF4FF0F0
:1012E00000024FF00003C7E904233B1D184608F035
:1012F00073F90423FB601DE0D7E904014FF00002FD
:101300004FF000030B0243EA10630202C7E9042313
:101310003A1DFB6813441B78DAB24FF00003D7E99B
:10132000040140EA020441EA0305C7E90445FB68F9
:10133000013BFB60FB68002BDEDAD7E90423104693
:1013400019461837BD46B0BDB0B586B000AF4FF0F6
:1013500000024FF00003C7E904233B1D184608F0C4
:1013600049F90423FB601DE0D7E904014FF00002B6
:101370004FF000030B0243EA10630202C7E90423A3
:101380003A1DFB6813441B78DAB24FF00003D7E92B
:10139000040140EA020441EA0305C7E90445FB6889
:1013A000013BFB60FB68002BDEDAD7E90423104623
:1013B00019461837BD46B0BD80B485B000AF78601F
:1013C00039603B6800221A600023FB6010E03B6834
:1013D0001B68FA6879680A4412781146FA68D200E4
:1013E00001FA02F21A443B681A60FB680133FB60A1
:1013F000FB68032BEBDD00BF00BF1437BD465DF873
:10140000047B704780B487B000AFF860C7E9002361
:1014100000237B6113E07B69FA6813443A781A7001
:10142000D7E900014FF000024FF00003020A42EA40
:1014300001620B0AC7E900237B6901337B617B6989
:10144000032BE8DD00BF00BF1C37BD465DF8047B01
:10145000704780B483B000AF786000BF0C37BD46E2
:101460005DF8047B70470000B0B596B000AF7860BF
:101470004FF4804200210F2008F005FA00237B651D
:1014800007E09F4A7B6D134400221A707B6D013385
:101490007B657B6D172BF4DD7B689B88182B06D84A
:1014A0007B689B8800221946954808F083F8944B86
:1014B00000229A700A229349914809F053F9034691
:1014C000002B50D103F06EFE03461A464FF0000386
:1014D0008D49C1E90023FFF737FF02460B468B49D0
:1014E000C1E90023894BD3E9002389484FF000016B
:1014F000141843EB01054FF000024FF00003220ADD
:1015000042EA05622B0A1346FB61F86908F09AFC6F
:101510004FF4967008F06CFA44F6206008F07AFDFB
:101520007C4B1A787C4B9A7000227B490F2008F084
:1015300002F8012200210F2008F01CF8032008F017
:101540008FFCB861BB69B3F1FF3F02D1734809F06A
:101550000FFE704B1B780133DAB26E4B1A70704B72
:1015600002221A70C0E00A226E49654809F0FAF8B2
:101570000346002B40F0B880012008F061FBFFF724
:10158000ABFE02460B466849C1E90023FFF7DCFECB
:1015900002460B466549C1E9002307F114031946C9
:1015A0006348FFF709FF07F1100319466148FFF789
:1015B00003FF07F10C0319465F48FFF7FDFE534B8D
:1015C000D3E9002313463B65574BD3E90023134669
:1015D000FB64564BD3E900231346BB643A697B692D
:1015E000D31A1846FEF78EFF02460B46C7E91023B2
:1015F000BA6CFB6CD31A1846FEF784FF02460B4602
:10160000C7E90E23FA683B69D31A1846FEF77AFF3A
:1016100002460B46C7E90C23FA6C3B6DD31A1846F9
:10162000FEF770FF02460B46C7E90A23D7E90E23EF
:10163000D7E91001FEF7E0FF02460B4614461D46AF
:10164000D7E90A23D7E90C01FEF7D6FF02460B467D
:1016500020462946FEF718FE02460B4614461D4654
:10166000D7E90E23D7E91001FEF710FE02460B461C
:1016700010461946D7E90C23FEF708FE02460B4632
:1016800010461946D7E90A23FEF700FE02460B462C
:1016900020462946FFF7DAF802460B46104619465F
:1016A000FFF7A2FA02460B46C7E90823D7E908016B
:1016B000FEF774FF0EA3D3E90023FEF79DFF024659
:1016C0000B461E49C1E900231C4BD3E900010AA3C4
:1016D000D3E90023FEF790FF02460B461849C1E903
:1016E00000230F4B03221A7000BF5837BD46B0BD10
:1016F000FA48CE3B1835B13D0000001319DDB14169
:101700001004002024000020700400203004002079
:101710000000AC0D0D04002030000020F8D20008BD
:1017200080040020400000203804002040040020F5
:101730001A0400201E04002022040020600400205F
:101740006804002080B582B000AF7860064A0021AE
:101750000F2008F098F808F0CDFC044B01221A7015
:1017600000BF0837BD4680BD0090272480040020BC
:1017700080B582B000AF7860064A00210F2008F0E3
:1017800082F808F0B7FC044B01221A7000BF08373A
:10179000BD4680BD00902724800400202DE9F04F35
:1017A0008BB000AF0346FB820023FB841CE10122C7
:1017B0002021934805F0B6F84FF080435B6A1A4643
:1017C0004FF000038F49C1E900238F4B1A788F4BEC
:1017D0009A7000228D490C2007F0ADFE01220021F5
:1017E0000C2007F0C7FE022008F03AFB00BF0021E2
:1017F0000F2007F0C2FF0346854A1360844B1A6826
:10180000844B1340002BF2D07F4B1B780133DAB2AC
:101810007D4B1A707E4B1B6803F48043002B00F055
:10182000B5804FF4814200210F2008F02CF80021F0
:10183000102007F0A2FF034603F07F033B623B6AE0
:10184000182B06D83B6A9BB200221946724807F053
:10185000B1FE714B00229A70052270496E4808F063
:1018600081FF0346002B40F09E80FFF735FD0246C6
:101870000B466B49C1E90023FFF766FD02460B46A4
:101880006849C1E90023674BD3E9002366484FF05C
:101890000001141843EB01054FF000024FF0000364
:1018A000220A42EA05622B0A1346FB61F86908F036
:1018B000C9FAFB691A464FF000034FEA12694FEA72
:1018C00002285A4A4FF0FF0308EA020A09EA030B0A
:1018D00044F234024FF000031AEB0201B9604BEB03
:1018E0000303FB60524BD7E90212C3E900124C4BD1
:1018F000D3E900234F48FFF785FD4A4BD3E9002386
:101900004D48FFF77FFD4A4BD3E900234B48FFF7D3
:1019100079FD3D4B1A784A4B9A70002248491820AD
:1019200007F009FE01220021182007F023FE012004
:1019300008F096FAB861BB69002B34D1FB8C1946CC
:10194000404809F08FFB3A4BD3E900231346194670
:101950003D4809F087FBFB6919463B4809F082FBCB
:1019600000BF00210F2007F008FF034603F08003AB
:10197000002BF6D0802200210F2007F084FF224B9D
:101980001B780133DAB2204B1A700CE0204B1B6835
:1019900019462E4809F066FB2D4A00210F2007F05A
:1019A00072FF08F0A7FB00222021154804F0BAFFBF
:1019B00000BF4FF080435B6A18464FF00001114BA7
:1019C000D3E90023861A3E6061EB03037B604CF28F
:1019D0004F324FF00003D7E900018B4208BF82422B
:1019E000E7D2FB8C0133FB84FA8CFB8A9A42FFF42A
:1019F000DEAE00BF00BF2C37BD46BDE8F08F00BF94
:101A000000040048700400200C040020580000204E
:101A10002804002000D027241004002064000020A7
:101A200048040020500400200000AC0D00FEFFFF21
:101A3000580400207E000020820000208600002044
:101A40007400002008D3000828D300082CD3000815
:101A50000090272480B582B000AF0346FB80FB884E
:101A6000082B02D108F022FD0FE0FB88042B02D1E5
:101A700008F028FD09E0FB88102B06D1054B1B78E8
:101A8000042B02D0034B04221A7000BF0837BD4656
:101A900080BD00BF8004002080B400AF00BFBD4601
:101AA0005DF8047B7047000080B500AF002212494A
:101AB000124805F0ABFE0346002B01D0FFF7ECFF08
:101AC0000F490E4805F0CDFE0346002B01D0FFF76D
:101AD000E3FF0C49094807F09BF90346002B01D0AE
:101AE000FFF7DAFF054805F0D6FE0346002B01D0CC
:101AF000FFF7D2FF00BF80BD9000002028460020E5
:101B000018010020F000002080B584B000AF78609C
:101B10007B681B680D4A934213D10D4B9B6D0C4A99
:101B200043F0806393650A4B9B6D03F08063FB6019
:101B3000FB6800220021432005F0EDFD432005F065
:101B400006FE00BF1037BD4680BD00BF00680040E4
:101B50000010024080B582B000AF78607B68D3F897
:101B600070227B6803F50C731946104605F0DCFE05
:101B700000BF0837BD4680BD80B582B000AF786039
:101B80000B46FB707B68D3F87002FB787A685B01C8
:101B9000134403F59E731A68FB78194605F011FF8C
:101BA00000BF0837BD4680BD80B582B000AF786009
:101BB0000B46FB707B68D3F87002FB787A685B0198
:101BC00013443C331A68FB78194605F06BFF00BFDD
:101BD0000837BD4680BD80B582B000AF78607B68B5
:101BE000D3F87032184606F07EF800BF0837BD46BD
:101BF00080BD80B584B000AF78600123FB737B6843
:101C00009B68022B01D0FFF747FF7B68D3F8703247
:101C1000FA7B1146184606F02BF87B68D3F8703231
:101C2000184605F0E4FF00BF1037BD4680BD000038
:101C300080B582B000AF78607B68D3F87032184608
:101C400006F026F87B689B69002B05D0044B1B69C6
:101C5000034A43F00603136100BF0837BD4680BD49
:101C600000ED00E080B582B000AF78607B689B69D2
:101C7000002B07D0084B1B69074A23F006031361AA
:101C800000F0B2FA7B68D3F87032184606F015F807
:101C900000BF0837BD4680BD00ED00E080B582B0D2
:101CA00000AF786005F028FC2B4A7B68C2F87032E0
:101CB0007B68294AC3F8C022274B284A1A60264B62
:101CC00008225A60244B02229A60234B02221A6196
:101CD000214B00225A61204B00229A611E4B0022A8
:101CE000DA611D4B00221A621B4800F04FFD0346CB
:101CF000002B01D0FFF7D0FE7B68D3F8C002182379
:101D00000022002101F01EFC7B68D3F8C00258239A
:101D10000022802101F016FC7B68D3F8C002C023AA
:101D20000022812101F00EFC7B68D3F8C0024FF441
:101D300088730022012101F005FC7B68D3F8C00202
:101D40004FF480730022822101F0FCFB002318462F
:101D50000837BD4680BD00BFEC4800200068004049
:101D600080B584B000AF78600023BB730023FB73A1
:101D70007B68D3F8C032184600F0F0FD0346BB7311
:101D8000BB7B032B16D801A252F823F09D1D00083F
:101D9000A31D0008A91D0008AF1D00080023FB7348
:101DA0000BE00223FB7308E00123FB7305E0022331
:101DB000FB7302E00223FB7300BFFB7B1846103766
:101DC000BD4680BD80B584B000AF7860084611463E
:101DD0001A460346FB700B46BB7013463B8000233C
:101DE000BB730023FB737B68D3F8C002BB783A88CF
:101DF000F97800F048FF0346BB73BB7B032B17D871
:101E000001A252F823F000BF191E00081F1E00088F
:101E1000251E00082B1E00080023FB730BE0022385
:101E2000FB7308E00123FB7305E00223FB7302E070
:101E30000223FB7300BFFB7B18461037BD4680BDF5
:101E400080B584B000AF78600B46FB700023BB7395
:101E50000023FB737B68D3F8C032FA78114618462A
:101E600000F071FF0346BB73BB7B032B16D801A2A6
:101E700052F823F0851E00088B1E0008911E0008F2
:101E8000971E00080023FB730BE00223FB7308E09E
:101E90000123FB7305E00223FB7302E00223FB73C3
:101EA00000BFFB7B18461037BD4680BD80B584B0AF
:101EB00000AF78600B46FB700023BB730023FB73FD
:101EC0007B68D3F8C032FA781146184601F005F85D
:101ED0000346BB73BB7B032B16D801A252F823F039
:101EE000F11E0008F71E0008FD1E0008031F000871
:101EF0000023FB730BE00223FB7308E00123FB7359
:101F000005E00223FB7302E00223FB7300BFFB7BAF
:101F100018461037BD4680BD80B584B000AF7860EC
:101F20000B46FB700023BB730023FB737B68D3F865
:101F3000C032FA781146184601F029F80346BB73FF
:101F4000BB7B032B16D801A252F823F05D1F0008BB
:101F5000631F0008691F00086F1F00080023FB7340
:101F60000BE00223FB7308E00123FB7305E002236F
:101F7000FB7302E00223FB7300BFFB7B18461037A4
:101F8000BD4680BD80B485B000AF78600B46FB7065
:101F90007B68D3F8C032FB6097F90330002B08DA76
:101FA000FB7803F07F03FA685B0113442A331B7844
:101FB00008E0FB7803F07F03FA685B01134403F544
:101FC00095731B7818461437BD465DF8047B70473F
:101FD00080B584B000AF78600B46FB700023BB7304
:101FE0000023FB737B68D3F8C032FA781146184699
:101FF00000F024FE0346BB73BB7B032B16D801A263
:1020000052F823F0152000081B20000821200008AA
:10201000272000080023FB730BE00223FB7308E07A
:102020000123FB7305E00223FB7302E00223FB7331
:1020300000BFFB7B18461037BD4680BD80B586B01B
:1020400000AFF8607A601A460B46FB7213463B817C
:102050000023BB750023FB75FB68D3F8C0023B89E6
:10206000F97A7A6800F000FF0346BB75BB7D032B4D
:1020700016D801A252F823F0892000088F2000080A
:10208000952000089B2000080023FB750BE002232D
:10209000FB7508E00123FB7505E00223FB7502E0F8
:1020A0000223FB7500BFFB7D18461837BD4680BD77
:1020B00080B586B000AFF8607A601A460B46FB72B6
:1020C00013463B810023BB750023FB75FB68D3F8E7
:1020D000C0023B89F97A7A6800F077FE0346BB7547
:1020E000BB7D032B16D801A252F823F0FD20000877
:1020F00003210008092100080F2100080023FB75B7
:102100000BE00223FB7508E00123FB7505E00223C9
:10211000FB7502E00223FB7500BFFB7D18461837F4
:10212000BD4680BD80B582B000AF78600B46FB70C5
:102130007B68D3F8C032FA781146184600F07FFE6B
:10214000034618460837BD4680BD000080B582B002
:1021500000AF78600B46FB70FB78002B02D0012BA0
:1021600013D023E07B689B69002B07D000F03CF87C
:10217000104B1B690F4A23F0060313617B68D3F8E9
:102180007032184605F099FD10E07B68D3F8703284
:10219000184605F07DFD7B689B69002B05D0054B3B
:1021A0001B69044A43F00603136100BF00BF0837F0
:1021B000BD4680BD00ED00E080B483B000AF786024
:1021C000034B18460C37BD465DF8047B704700BFD3
:1021D0008404002080B483B000AF786000BF0C3767
:1021E000BD465DF8047B704780B500AFFEF7E8FDA3
:1021F00000BF80BD80B483B000AF03463960FB717F
:102200003B6812221A80034B18460C37BD465DF816
:10221000047B7047B000002080B483B000AF034659
:102220003960FB713B6804221A80034B18460C3757
:10223000BD465DF8047B7047D000002080B582B0B9
:1022400000AF03463960FB71FB79002B05D13A687A
:102250000749084806F0C7FA04E03A680449054807
:1022600006F0C1FA024B18460837BD4680BD00BFD4
:10227000604B00205CD3000880B582B000AF0346FD
:102280003960FB713A680449044806F0ACFA024B25
:1022900018460837BD4680BD604B002074D3000847
:1022A00080B582B000AF03463960FB713B681A22EB
:1022B0001A8000F055F8024B18460837BD4680BD1D
:1022C000D400002080B582B000AF03463960FB71B6
:1022D000FB79002B05D13A680749084806F083FAD4
:1022E00004E03A680449054806F07DFA024B1846B6
:1022F0000837BD4680BD00BF604B002088D3000872
:1023000080B582B000AF03463960FB71FB79002BCA
:1023100005D13A680749084806F065FA04E03A68CA
:102320000449054806F05FFA024B18460837BD46D7
:1023300080BD00BF604B002094D3000880B483B000
:1023400000AF03463960FB713B680C221A80034BD7
:1023500018460C37BD465DF8047B7047C40000206A
:1023600080B584B000AF0F4B1B68FB600E4B1B6841
:10237000BB600E4B1B687B60FA687B681344FB6094
:10238000FB68002B09D008220949F86800F014F80E
:1023900004220849B86800F00FF800BF1037BD46A6
:1023A00080BD00BF9075FF1F9475FF1F9875FF1FBC
:1023B000D6000020E600002080B487B000AFF860AF
:1023C000B9601346FB710023FB750023FB7527E002
:1023D000FB681B0F092B0BD8FB681B0FDAB2FB7DC8
:1023E0005B001946BB680B443032D2B21A700AE067
:1023F000FB681B0FDAB2FB7D5B001946BB680B4420
:102400003732D2B21A70FB681B01FB60FB7D5B00A8
:102410000133BA68134400221A70FB7D0133FB7547
:10242000FA7DFB799A42D3D300BF00BF1C37BD466B
:102430005DF8047B7047000080B500AF00220549BD
:10244000054806F0FCFC0549034806F012FD002390
:10245000184680BD4851002028460020604D0020CD
:1024600080B400AF00231846BD465DF8047B70477A
:1024700080B483B000AF03463960FB711346BB8064
:10248000FB79232B4AD801A252F823F01D2500081E
:102490001D2500081D2500081D2500081D25000814
:1024A0001D2500081D2500081D2500081D25000804
:1024B0001D2500081D2500081D2500081D250008F4
:1024C0001D2500081D2500081D2500081D250008E4
:1024D0001D2500081D2500081D2500081D250008D4
:1024E0001D2500081D2500081D2500081D250008C4
:1024F0001D2500081D2500081D2500081D250008B4
:102500001D2500081D2500081D2500081D250008A3
:102510001D2500081D2500081D25000800BF0023FB
:1025200018460C37BD465DF8047B704780B582B015
:1025300000AF786039607968054806F09AFC044875
:1025400006F0DAFC002318460837BD4680BD00BF00
:102550002846002080B584B000AF78600B467B80B1
:102560000023FB730D4BD3F8B832BB60BB68D3F8C4
:102570001432002B01D001230BE07B881A467968C6
:10258000064806F05CFC054806F087FC0346FB7332
:10259000FB7B18461037BD4680BD00BF2846002093
:1025A00080B400AF00BFBD465DF8047B704780B4C7
:1025B00000AFFEE780B400AFFEE780B400AFFEE7F7
:1025C00080B400AFFEE780B400AF00BFBD465DF849
:1025D000047B704780B400AF00BFBD465DF8047B4C
:1025E000704780B400AF00BFBD465DF8047B704704
:1025F00080B500AF02F0C4FD00BF80BD80B500AF64
:10260000042004F0A7F900BF80BD80B500AF102002
:1026100004F0A0F900BF80BD80B500AF024802F011
:10262000C3F900BF80BD00BF6407002080B500AFC4
:10263000024800F0B5F900BF80BD00BFEC480020A3
:1026400080B483B000AF0F4B1B6E0E4A43F0010302
:1026500013660C4B1B6E03F001037B607B68094B18
:102660009B6D084A43F080539365064B9B6D03F0C6
:1026700080533B603B6800BF0C37BD465DF8047B70
:10268000704700BF0010024080B58AB000AF78608C
:1026900007F1140300221A605A609A60DA601A6126
:1026A0007B681B68174A934228D1174B1B6E164A4A
:1026B00043F480531366144B1B6E03F480533B6149
:1026C0003B69114BDB6C104A43F00103D3640E4BA2
:1026D000DB6C03F00103FB60FB68E0237B610223FA
:1026E000BB610023FB6103233B6205237B6207F18F
:1026F000140319464FF0904003F0A8FE00BF28379E
:10270000BD4680BD003001400010024080B582B05F
:1027100000AF78607B681B68084A93420AD1084B77
:102720001B6E074A23F480531366E0214FF090405C
:1027300004F006F800BF0837BD4680BD00300140F8
:102740000010024080B584B000AF78607B681B68E1
:10275000B3F1804F13D10C4B9B6D0B4A43F0010337
:102760009365094B9B6D03F00103FB60FB6800223E
:1027700000211C2004F0CFFF1C2004F0E8FF00BF64
:102780001037BD4680BD00BF00100240F0B58BB0D1
:1027900006AF78607B68002B01D10123DAE07B680B
:1027A00093F82932DBB2002B06D17B68002283F834
:1027B00028227868FFF7A8F97B68032283F829228A
:1027C0007B681B68184600F04EFF7B681B683B6007
:1027D0007E686D4606F110040FCC0FC523682B6090
:1027E000331D0ECB386800F014FF0346002B05D0D4
:1027F0007B68022283F829220123ABE07B681B68F7
:102800000021184600F04AFF0023FB7335E0FB7BF4
:102810007A685B011344293301221A70FB7B7A68C2
:102820005B0113442833FA7B1A70FB7BFA7B91B26D
:102830007A685B01134436330A461A80FB7B7A6858
:102840005B0113442B3300221A70FB7B7A685B0117
:102850001344383300221A60FB7B7A685B0113440F
:102860003C3300221A60FB7B7A6802335B0113441D
:1028700000221A60FB7B0133FB73FA7B7B685B6889
:102880009A42C4D30023FB7331E0FB7B7A685B017F
:10289000134403F2291300221A70FB7B7A685B0150
:1028A000134403F59473FA7B1A70FB7B7A685B011F
:1028B000134403F22B1300221A70FB7B7A685B012E
:1028C000134403F59C7300221A60FB7B7A685B015A
:1028D000134403F59E7300221A60FB7B7A680A3367
:1028E0005B01134400221A60FB7B0133FB73FA7B0C
:1028F0007B685B689A42C8D37B681B683B607E68D4
:102900006D4606F110040FCC0FC523682B60331DF4
:102910000ECB386800F0CFFE0346002B05D07B6855
:10292000022283F82922012314E07B68002283F825
:1029300024207B68012283F829227B68DB69012B34
:1029400002D1786800F03BFE7B681B68184601F0F6
:1029500016FF002318461437BD46F0BD80B582B07F
:1029600000AF78607B6893F82832012B01D10223F5
:1029700012E07B68012283F828227B681B681846D6
:1029800001F0E6FE7B681B68184600F053FE7B688A
:10299000002283F82822002318460837BD4680BD50
:1029A00080B582B000AF78607B681B68184601F084
:1029B000FBFE034603F40043B3F5004F02D17868F1
:1029C00000F034FB7B681B68184601F0EDFE0346FF
:1029D00003F48063B3F5806F12D17B681B68B3F892
:1029E00044309AB27B681B6822F4806292B2A3F8EA
:1029F00044207868FFF7FDF80021786800F01EF9A0
:102A00007B681B68184601F0CFFE034603F4804341
:102A1000B3F5804F0BD17B681B68B3F844309AB292
:102A20007B681B6822F4804292B2A3F844207B6842
:102A30001B68184601F0B8FE034603F40053B3F5D3
:102A4000005F0BD17B681B68B3F844309AB27B6897
:102A50001B6822F4005292B2A3F844207B681B68E2
:102A6000184601F0A1FE034603F48053B3F5805FDE
:102A700033D17B681B68B3F840309AB27B681B681F
:102A800022F0040292B2A3F840207B681B68B3F8DE
:102A900040309AB27B681B6822F0080292B2A3F819
:102AA00040207B6893F86032012B07D17B680022BD
:102AB00083F8602200217868FFF748FB7868FFF709
:102AC000D1F87B681B68B3F844309AB27B681B6806
:102AD00022F4805292B2A3F844207B681B68184607
:102AE00001F062FE034603F40063B3F5006F26D1E4
:102AF0007B681B68B3F840309AB27B681B6842F071
:102B0000080292B2A3F840207B681B68B3F84430F7
:102B10009AB27B681B6822F4006292B2A3F8442048
:102B20007B681B68B3F840309AB27B681B6842F040
:102B3000040292B2A3F840207868FFF779F87B6826
:102B40001B68184601F030FE034603F08003802B1B
:102B50003FD17B681B68B3F844309AB27B681B682E
:102B600022F0800292B2A3F844207B6893F860328E
:102B7000002B2BD17B681B68B3F840309AB27B687E
:102B80001B6842F0040292B2A3F840207B681B68E5
:102B9000B3F840309AB27B681B6842F0080292B2E8
:102BA000A3F840207B68012283F860227B681B68C1
:102BB000B3F854309BB29B0803F03C027B68C3F827
:102BC000642201217868FFF7C1FA02E07868FFF714
:102BD0002FF87B681B68184601F0E6FD034603F4F6
:102BE0000073B3F5007F0ED17B681B68B3F84430E7
:102BF0009AB27B681B6822F4007292B2A3F8442058
:102C00007868FEF7E8FF7B681B68184601F0CCFD8A
:102C1000034603F48073B3F5807F0BD17B681B6898
:102C2000B3F844309AB27B681B6822F4807292B287
:102C3000A3F8442000BF0837BD4680BD80B582B0F0
:102C400000AF78600B46FB707B6893F82832012B4D
:102C500001D1022313E07B68012283F828227B68DC
:102C6000FA7883F824207B681B68FA7811461846A6
:102C700001F05AFD7B68002283F8282200231846C1
:102C80000837BD4680BD80B584B000AF7860084687
:102C900011461A460346FB700B463B801346BB7039
:102CA0000023FB7297F90330002B0BDAFB7803F05B
:102CB00007035B0128337A681344FB60FB68012239
:102CC0005A700BE0FB7803F007035B0103F5947384
:102CD0007A681344FB60FB6800225A70FB7803F0AB
:102CE0000703DAB2FB681A703A88FB681A61FB685E
:102CF000BA78DA70FB685B78002B04D0FB681B782D
:102D00009AB2FB68DA81BB78022B02D1FB68002201
:102D10001A717B6893F82832012B01D102230EE04F
:102D20007B68012283F828227B681B68F9681846B3
:102D300000F0E6FC7B68002283F82822FB7A184624
:102D40001037BD4680BD80B584B000AF78600B46BB
:102D5000FB7097F90330002B0BDAFB7803F00703C5
:102D60005B0128337A681344FB60FB6801225A70C8
:102D70000BE0FB7803F007035B0103F594737A68BB
:102D80001344FB60FB6800225A70FB7803F00703D2
:102D9000DAB2FB681A707B6893F82832012B01D1F4
:102DA00002230EE07B68012283F828227B681B68DF
:102DB000F968184600F094FF7B68002283F8282207
:102DC000002318461037BD4680BD80B586B000AFE1
:102DD000F8607A603B600B46FB72FB7A03F00703F6
:102DE0005B0103F59473FA6813447B617B697A682D
:102DF0005A617B693A689A617B690022DA617B6972
:102E000000225A70FB7A03F00703DAB27B691A706A
:102E1000FB7A03F00703002B06D1FB681B68796976
:102E2000184601F0F3F805E0FB681B68796918465D
:102E300001F0ECF8002318461837BD4680BD80B479
:102E400083B000AF78600B46FB70FB7803F007039C
:102E50007A680A335B01134404331B6818460C3745
:102E6000BD465DF8047B704780B586B000AFF86062
:102E70007A603B600B46FB72FB7A03F007035B0151
:102E80002833FA6813447B617B697A685A617B69ED
:102E90003A689A617B690022DA617B6901225A7083
:102EA000FB7A03F00703DAB27B691A70FB7A03F04E
:102EB0000703002B06D1FB681B687969184601F0EF
:102EC000A5F805E0FB681B687969184601F09EF8D3
:102ED000002318461837BD4680BD80B584B000AFCA
:102EE00078600B46FB70FB7803F007027B685B6839
:102EF0009A4201D9012346E097F90330002B0BDAFF
:102F0000FB7803F007035B0128337A681344FB6006
:102F1000FB6801225A7009E0FB785B0103F59473AA
:102F20007A681344FB60FB6800225A70FB68012238
:102F30009A70FB7803F00703DAB2FB681A707B68BB
:102F400093F82832012B01D102231CE07B68012277
:102F500083F828227B681B68F968184601F00EFB8D
:102F6000FB7803F00703002B08D17B681A687B68A5
:102F700003F50C731946104601F026FC7B6800220D
:102F800083F82822002318461037BD4680BD80B53F
:102F900084B000AF78600B46FB70FB7803F00F0243
:102FA0007B685B689A4201D901233AE097F90330C4
:102FB000002B0BDAFB7803F007035B0128337A68F8
:102FC0001344FB60FB6801225A700BE0FB7803F0AE
:102FD00007035B0103F594737A681344FB60FB6895
:102FE00000225A70FB6800229A70FB7803F00703F6
:102FF000DAB2FB681A707B6893F82832012B01D192
:1030000002230EE07B68012283F828227B681B687C
:10301000F968184601F0F4FA7B68002283F8282248
:10302000002318461037BD4680BD000090B589B01A
:1030300000AF786074E27B681B68B3F84430FB82B1
:10304000FB8ADBB203F00F037B757B7D002B40F026
:103050003C81FB8A03F01003002B4FD17B681B6877
:103060001B889BB223F4E14323F070039CB27B687E
:103070001A686FEA44436FEA53439BB213807B683C
:103080002833FB607B681B68B3F850309BB21A464C
:10309000FB681B78DB0013447A681268134403F260
:1030A00002431B88C3F30902FB68DA61FB685A69B3
:1030B000FB68DB691A44FB685A6100217868FEF7F7
:1030C00073FD7B6893F82430DBB2002B00F028827C
:1030D000FB689B69002B40F023827B6893F82430C7
:1030E000DBB263F07F03DAB27B681B6892B2A3F8AD
:1030F0004C207B68002283F8242011E27B6803F5D2
:103100009473FB607B681B681B887B827B8A03F45B
:103110000063002B31D07B681B68B3F850309BB242
:103120001A46FB681B78DB0013447A681268134464
:1031300003F206431B88C3F30902FB68DA617B686C
:1031400018687B6803F50C71FB68DA88FB68DB693B
:103150009BB201F087FB7B681B681B889AB240F624
:103160008F7313409CB27B681B6844F0800292B25C
:103170001A807868FEF7EEFCD2E1B7F91230002B26
:1031800080F2CE817B681B681B889AB240F68F73F1
:1031900013409CB27B681B6844F0800292B21A8094
:1031A0007B681B68B3F850309BB21A46FB681B78EB
:1031B000DB0013447A681268134403F206431B8849
:1031C000C3F30902FB68DA61FB68DB69002B19D0E5
:1031D000FB685B69002B15D07B681868FB68596930
:1031E000FB68DA88FB68DB699BB201F03BFBFB689C
:1031F0005A69FB68DB691A44FB685A6100217868E8
:10320000FEF7BAFC7B681B681C467B681B68B3F83A
:1032100050309BB21C4404F206431C46FB681B69F9
:10322000002B0ED123889BB223F4F8439BB223805A
:1032300023889BB26FEA43436FEA53439BB22380D8
:103240002DE0FB681B693E2B12D8FB681B695B08ED
:10325000BB61FB681B6903F00103002B02D0BB6953
:103260000133BB61BB699BB29B029BB2238016E01A
:10327000FB681B695B09BB61FB681B6903F01F03EB
:10328000002B02D1BB69013BBB61BB699BB29B02B6
:103290009BB26FEA43436FEA53439BB223807B6840
:1032A0001B681B889BB223F4804323F070039CB2FD
:1032B00084F480539CB284F400539CB27B681A68F7
:1032C0009E4B23439BB213802AE17B681B681A46FE
:1032D0007B7D9B0013441B887B82B7F91230002B47
:1032E00080F2CB807B681B681A467B7D9B00134471
:1032F0001B889AB240F68F7313409CB27B681B68A0
:103300001A467B7D9B00134444F0800292B21A80DF
:103310007B7D5B0103F594737A681344FB60FB6863
:103320001B7B002B1FD17B681B68B3F850309BB20E
:103330001A46FB681B78DB0013447A681268134452
:1033400003F206431B88C3F30903FB83FB8B002BAB
:103350006ED07B681868FB685969FB68DA88FB8B5C
:1033600001F080FA64E07B681B681A46FB681B78F2
:103370009B0013441B889BB223F4E04323F07003AB
:103380009CB27B681B681A46FB681B789B001A443A
:103390006B4B23439BB213807B681B681A46FB6808
:1033A0001B789B0013441B889BB203F48043002BC3
:1033B0001FD07B681B68B3F850309BB21A46FB687D
:1033C0001B78DB0013447A681268134403F202434B
:1033D0001B88C3F30903FB83FB8B002B28D07B687E
:1033E0001868FB685969FB681A89FB8B01F03AFA87
:1033F0001EE07B681B68B3F850309BB21A46FB682E
:103400001B78DB0013447A681268134403F2064306
:103410001B88C3F30903FB83FB8B002B08D07B685D
:103420001868FB685969FB685A89FB8B01F01AFA26
:10343000FB68DA69FB8B1A44FB68DA61FB685A693E
:10344000FB8B1A44FB685A61FB689B69002B04D014
:10345000FA8BFB681B699A4206D2FB681B781946F7
:103460007868FEF789FB08E0FB681978FB685A6901
:10347000FB689B697868FFF7A8FC7B8A03F08003F0
:10348000002B4DD07B7D5B0128337A681344FB60B1
:103490007B681B681A467B7D9B0013441B889BB28C
:1034A00023F4E14323F070039CB27B681B681A4647
:1034B0007B7D9B001A446FEA44436FEA53439BB2FF
:1034C00013807B681B68B3F850309BB21A46FB68C8
:1034D0001B78DB0013447A681268134403F202433A
:1034E0001B88C3F30902FB68DA61FB685A69FB6851
:1034F000DB691A44FB685A61FB689B69002B06D1A3
:10350000FB681B7819467868FEF74EFB08E0FB68FD
:103510001978FB685A69FB689B697868FFF7A4FC17
:103520007B681B68B3F844309BB21BB2002BFFF6DC
:1035300082AD002318462437BD4690BD8080FFFF32
:10354000C080FFFF80B487B000AFF8607B600B469F
:103550007B8113463B817B8903F080039BB2002B68
:1035600008D07B8903F007035B012833FA68134412
:103570007B6106E07B895B0103F59473FA68134471
:103580007B613B89002B07D17B6900221A737B6822
:103590009AB27B69DA800BE07B6901221A737B683F
:1035A0009AB27B691A817B681B0C9AB27B695A813B
:1035B000002318461C37BD465DF8047B704780B475
:1035C00085B000AF78607B681B68FB607B68012278
:1035D000C3F868227B68002283F86022FB68B3F896
:1035E00054309BB243F001039AB2FB68A3F8542015
:1035F000FB68B3F854309BB243F002039AB2FB6805
:10360000A3F85420002318461437BD465DF8047B08
:10361000704784B080B483B000AF786007F11400C5
:1036200080E80E00002318460C37BD465DF8047B89
:1036300004B0704780B485B000AF78604BF68073FB
:10364000FB607B68B3F840309AB2FB689BB21343CF
:103650009AB27B68A3F84020002318461437BD4671
:103660005DF8047B704780B485B000AF78604BF69E
:103670008073FB607B68B3F840309AB2FB689BB202
:10368000DB439BB213409AB27B68A3F8402000232F
:1036900018461437BD465DF8047B704780B483B08C
:1036A00000AF78600B46FB70002318460C37BD4610
:1036B0005DF8047B704784B080B582B000AF78605D
:1036C00007F1140080E80E007B680122A3F8402077
:1036D0007B680022A3F840207B680022A3F84420E6
:1036E0007B680022A3F850207868FFF7A3FF00232F
:1036F00018460837BD46BDE8804004B0704700005A
:1037000090B484B000AF786039600023FB737A68AE
:103710003B681B789B0013441B889BB223F4EC434B
:1037200023F07003BB813B68DB78032B19D801A21F
:1037300052F823F045370008593700086937000868
:103740004F370008BB8943F40073BB810DE0BB8990
:1037500043F4C063BB8108E0BB8943F48063BB8151
:1037600003E00123FB7300E000BF7A683B681B782D
:103770009B001A44BB8943F07F4343F47F0343F427
:10378000004343F080039BB213807A683B681B7848
:103790009B0013441B889BB21BB223F4E04323F02D
:1037A00070031AB23B681B781BB213431BB29CB266
:1037B0007A683B681B789B001A448A4B23439BB270
:1037C00013803B681B7B002B40F012813B685B78C9
:1037D000002B67D07C687B68B3F850309BB21C44E8
:1037E0003B681B78DB00234403F580631C463B6881
:1037F000DB885B089BB25B009BB223807A683B68E6
:103800001B789B0013441B889CB2234603F04003A3
:10381000002B14D07A683B681B789B0013441B88EC
:103820009BB223F4E04323F070039CB27A683B68B8
:103830001B789B001A446C4B23439BB213803B685C
:10384000DB78012B18D07A683B681B789B00134407
:103850001B889BB223F4E04323F040039CB284F026
:1038600020039CB27A683B681B789B001A445D4B2E
:1038700023439BB213802BE27A683B681B789B0042
:1038800013441B889BB223F4E04323F040039CB213
:103890007A683B681B789B001A44524B23439BB2C7
:1038A000138015E27C687B68B3F850309BB21C44EF
:1038B0003B681B78DB00234403F204431C463B684F
:1038C000DB885B089BB25B009BB223807C687B68D3
:1038D000B3F850309BB21C443B681B78DB00234498
:1038E00003F206431C463B681B69002B0ED123885C
:1038F0009BB223F4F8439BB2238023889BB26FEAE8
:1039000043436FEA53439BB223802DE03B681B691E
:103910003E2B12D83B681B695B08BB603B681B6988
:1039200003F00103002B02D0BB680133BB60BB680E
:103930009BB29B029BB2238016E03B681B695B092C
:10394000BB603B681B6903F01F03002B02D1BB68FF
:10395000013BBB60BB689BB29B029BB26FEA4343D7
:103960006FEA53439BB223807A683B681B789B00C5
:1039700013441B889CB2234603F48043002B14D0CD
:103980007A683B681B789B0013441B889BB223F426
:10399000E04323F070039CB27A683B681B789B007D
:1039A0001A44124B23439BB213807A683B681B78FE
:1039B0009B0013441B889BB223F4804323F07003C5
:1039C0009CB284F480539CB284F400539CB27A6815
:1039D0003B681B789B001A44024B23439BB2138025
:1039E00076E100BF8080FFFFC080FFFF80C0FFFF47
:1039F0007A683B681B789B0013441B889BB223F4B6
:103A0000E04323F070039CB27A683B681B789B000C
:103A10001A44964B23439BB213807C687B68B3F8AF
:103A200050309BB21C443B681B78DB00234403F5F9
:103A300080631C463B681B895B089BB25B009BB2A2
:103A400023807C687B68B3F850309BB21C443B6891
:103A50001B78DB00234403F204431C463B685B896C
:103A60005B089BB25B009BB223803B685B78002BBA
:103A700040F088807A683B681B789B0013441B8861
:103A80009CB2234603F48043002B14D07A683B6831
:103A90001B789B0013441B889BB223F4E04323F064
:103AA00070039CB27A683B681B789B001A44704B89
:103AB00023439BB213807A683B681B789B001344B6
:103AC0001B889CB2234603F04003002B14D07A6875
:103AD0003B681B789B0013441B889BB223F4E04394
:103AE00023F070039CB27A683B681B789B001A44F1
:103AF000604B23439BB213807A683B681B789B0022
:103B000013441B889BB223F4E04323F070039CB260
:103B10007A683B681B789B001A44564B23439BB240
:103B200013807A683B681B789B0013441B889BB208
:103B300023F4804323F070039CB284F480539CB23E
:103B400084F400539CB27A683B681B789B001A444B
:103B5000494B23439BB213807A683B681B789B00D8
:103B600013441B889BB223F4E04323F040039CB230
:103B70007A683B681B789B001A443F4B23439BB2F7
:103B80001380A5E07A683B681B789B0013441B8870
:103B90009CB2234603F48043002B14D07A683B6820
:103BA0001B789B0013441B889BB223F4E04323F053
:103BB00070039CB27A683B681B789B001A442C4BBC
:103BC00023439BB213807A683B681B789B001344A5
:103BD0001B889CB2234603F04003002B14D07A6864
:103BE0003B681B789B0013441B889BB223F4E04383
:103BF00023F070039CB27A683B681B789B001A44E0
:103C00001C4B23439BB213807A683B681B789B0054
:103C100013441B889BB223F4E04323F070039CB24F
:103C20007A683B681B789B001A44114B23439BB274
:103C300013803B68DB78012B20D07A683B681B78C7
:103C40009B0013441B889BB223F4E04323F0400302
:103C50009CB284F020039CB27A683B681B789B007E
:103C60001A44054B23439BB213801CE08081FFFF65
:103C700080C0FFFFC080FFFF8080FFFF7A683B6845
:103C80001B789B0013441B889BB223F4E04323F072
:103C900040039CB27A683B681B789B001A440F4B28
:103CA00023439BB213807A683B681B789B001344C4
:103CB0001B889BB223F4804323F070039CB27A6884
:103CC0003B681B789B001A44044B23439BB2138030
:103CD000FB7B18461037BD4690BC70478080FFFFC5
:103CE00090B482B000AF786039603B681B7B002BDA
:103CF00071D13B685B78002B36D07A683B681B78C3
:103D00009B0013441B889CB2234603F04003002B06
:103D100014D07A683B681B789B0013441B889BB2C5
:103D200023F4E04323F070039CB27A683B681B786D
:103D30009B001A446B4B23439BB213807A683B6809
:103D40001B789B0013441B889BB223F4E04323F0B1
:103D500040039CB27A683B681B789B001A44624B14
:103D600023439BB2138044E17A683B681B789B0035
:103D700013441B889CB2234603F48043002B14D0C9
:103D80007A683B681B789B0013441B889BB223F422
:103D9000E04323F070039CB27A683B681B789B0079
:103DA0001A44524B23439BB213807A683B681B78BA
:103DB0009B0013441B889BB223F4804323F07003C1
:103DC0009CB27A683B681B789B001A44464B23439D
:103DD0009BB213800DE13B685B78002B40F088803C
:103DE0007A683B681B789B0013441B889CB223466F
:103DF00003F48043002B14D07A683B681B789B0047
:103E000013441B889BB223F4E04323F070039CB25D
:103E10007A683B681B789B001A44344B23439BB25F
:103E200013807A683B681B789B0013441B889CB204
:103E3000234603F04003002B14D07A683B681B78BC
:103E40009B0013441B889BB223F4E04323F07003D0
:103E50009CB27A683B681B789B001A44214B234331
:103E60009BB213807A683B681B789B0013441B88C5
:103E70009BB223F4E04323F070039CB27A683B6862
:103E80001B789B001A44174B23439BB213807A681C
:103E90003B681B789B0013441B889BB223F4804330
:103EA00023F070039CB27A683B681B789B001A442D
:103EB0000D4B23439BB213807A683B681B789B00B1
:103EC00013441B889BB223F4E04323F040039CB2CD
:103ED0007A683B681B789B001A44034B23439BB2D0
:103EE000138086E0C080FFFF8080FFFF80C0FFFF5F
:103EF0007A683B681B789B0013441B889CB223465E
:103F000003F48043002B14D07A683B681B789B0035
:103F100013441B889BB223F4E04323F070039CB24C
:103F20007A683B681B789B001A44354B23439BB24D
:103F300013807A683B681B789B0013441B889CB2F3
:103F4000234603F04003002B14D07A683B681B78AB
:103F50009B0013441B889BB223F4E04323F07003BF
:103F60009CB27A683B681B789B001A44254B23431C
:103F70009BB213807A683B681B789B0013441B88B4
:103F80009BB223F4E04323F070039CB27A683B6851
:103F90001B789B001A441A4B23439BB213807A6808
:103FA0003B681B789B0013441B889BB223F4E043BF
:103FB00023F040039CB27A683B681B789B001A444C
:103FC000114B23439BB213807A683B681B789B009C
:103FD00013441B889BB223F4804323F070039CB2EC
:103FE0007A683B681B789B001A44074B23439BB2BB
:103FF0001380002318460837BD4690BC704700BFA9
:1040000080C0FFFFC080FFFF8080FFFF90B58DB0B4
:1040100000AF786039603B685B78012B40F06081CD
:104020003B689A693B681B699A4209D93B681B69DE
:10403000BB623B689A69BB6AD21A3B689A6105E029
:104040003B689B69BB623B6800229A613B681B7BB3
:10405000002B19D13B6859693B68DA88BB6A9BB26F
:10406000786800F0BDFB7C687B68B3F850309BB289
:104070001C443B681B78DB00234403F202431C46CC
:10408000BB6A9BB223800FE17A683B681B789B0078
:1040900013441B889BB203F04003002B65D07C685F
:1040A0003B685B78002B48D17C687B68B3F8503064
:1040B0009BB21C443B681B78DB00234403F206439D
:1040C0001C46BB6A002B0ED123889BB223F4F84315
:1040D0009BB2238023889BB26FEA43436FEA53432A
:1040E0009BB223803DE0BB6A3E2B10D8BB6A5B08C5
:1040F0007B62BB6A03F00103002B02D07B6A0133B1
:104100007B627B6A9BB29B029BB2238029E0BB6AE5
:104110005B097B62BB6A03F01F03002B02D17B6A41
:10412000013B7B627B6A9BB29B029BB26FEA43437B
:104130006FEA53439BB2238013E03B685B78012B0B
:104140000FD17B68B3F850309BB21C443B681B789E
:10415000DB00234403F20643FB60BB6A9AB2FB68B0
:104160001A803B685B89FB8563E03B685B78002BCA
:1041700048D17C687B68B3F850309BB21C443B68E4
:104180001B78DB00234403F202431C46BB6A002B6E
:104190000ED123889BB223F4F8439BB2238023885B
:1041A0009BB26FEA43436FEA53439BB223803DE0E7
:1041B000BB6A3E2B10D8BB6A5B083B62BB6A03F04C
:1041C0000103002B02D03B6A01333B623B6A9BB286
:1041D0009B029BB2238029E0BB6A5B093B62BB6AFE
:1041E00003F01F03002B02D13B6A013B3B623B6A99
:1041F0009BB29B029BB26FEA43436FEA53439BB26D
:10420000238013E03B685B78012B0FD17C687B68CF
:10421000B3F850309BB21C443B681B78DB0023444E
:1042200003F202431C46BB6A9BB223803B681B8996
:10423000FB853B685969BB6A9BB2FA8D786800F0D0
:10424000CFFA3B685B78002B15D17A683B681B7806
:104250009B0013441B889BB223F4E04323F07003BC
:104260009CB27A683B681B789B001A449A4B2343A4
:104270009BB2138018E03B685B78012B14D17A68FD
:104280003B681B789B0013441B889BB223F4E043DC
:1042900023F070039CB27A683B681B789B001A4439
:1042A0008E4B23439BB213807A683B681B789B003C
:1042B00013441B889BB223F4E04323F040039CB2D9
:1042C00084F010039CB284F020039CB27A683B68AF
:1042D0001B789B001A44824B23439BB2138046E118
:1042E0003B689A693B681B699A4209D93B681B691C
:1042F000BB623B689A69BB6AD21A3B689A6105E067
:104300003B689B69BB623B6800229A613B681B7BF0
:10431000002B48D17C687B68B3F850309BB21C44BA
:104320003B681B78DB00234403F206431C46BB6A50
:10433000002B0ED123889BB223F4F8439BB2238039
:1043400023889BB26FEA43436FEA53439BB22380B7
:10435000F2E0BB6A3E2B10D8BB6A5B08FB61BB6A0C
:1043600003F00103002B02D0FB690133FB61FB6901
:104370009BB29B029BB22380DEE0BB6A5B09FB61C0
:10438000BB6A03F01F03002B02D1FB69013BFB61F9
:10439000FB699BB29B029BB26FEA43436FEA5343B4
:1043A0009BB22380C8E03B685B78002B48D17C68D7
:1043B0007B68B3F850309BB21C443B681B78DB0031
:1043C000234403F202431C46BB6A002B0ED1238810
:1043D0009BB223F4F8439BB2238023889BB26FEAFD
:1043E00043436FEA53439BB223803DE0BB6A3E2BBD
:1043F00010D8BB6A5B08BB61BB6A03F00103002BEA
:1044000002D0BB690133BB61BB699BB29B029BB20B
:10441000238029E0BB6A5B09BB61BB6A03F01F0311
:10442000002B02D1BB69013BBB61BB699BB29B0204
:104430009BB26FEA43436FEA53439BB2238013E07E
:104440003B685B78012B0FD17C687B68B3F85030F8
:104450009BB21C443B681B78DB00234403F20243FD
:104460001C46BB6A9BB223807C683B685B78002B50
:104470004ED17C687B68B3F850309BB21C443B68DB
:104480001B78DB00234403F206431C46BB6A002B67
:104490000ED123889BB223F4F8439BB22380238858
:1044A0009BB26FEA43436FEA53439BB2238043E0DE
:1044B000BB6A3E2B16D8BB6A5B087B61BB6A03F004
:1044C0000103002B02D07B6901337B617B699BB2C6
:1044D0009B029BB223802FE0C080FFFF80C0FFFFC4
:1044E0008080FFFFBB6A5B097B61BB6A03F01F032F
:1044F000002B02D17B69013B7B617B699BB29B02F4
:104500009BB26FEA43436FEA53439BB2238013E0AD
:104510003B685B78012B0FD17B68B3F850309BB2BE
:104520001C443B681B78DB00234403F206433B61D9
:10453000BB6A9AB23B691A807A683B681B789B0019
:1045400013441B889BB223F4804323F070039CB276
:1045500084F480539CB284F400539CB27A683B6824
:104560001B789B001A44044B23439BB21380002307
:1045700018463437BD4690BD8080FFFF90B482B0AE
:1045800000AF786039603B685B78002B18D07A68A0
:104590003B681B789B0013441B889BB223F4E043C9
:1045A00023F040039CB284F010039CB27A683B680D
:1045B0001B789B001A44114B23439BB2138017E0D6
:1045C0007A683B681B789B0013441B889BB223F4DA
:1045D000804323F070039CB284F480539CB27A68C9
:1045E0003B681B789B001A44044B23439BB2138007
:1045F000002318460837BD4690BC70478080FFFFF7
:1046000090B482B000AF786039603B681B7B002BB0
:104610007DD13B685B78002B3DD07A683B681B7886
:104620009B0013441B889CB2234603F04003002BDD
:1046300014D07A683B681B789B0013441B889BB29C
:1046400023F4E04323F070039CB27A683B681B7844
:104650009B001A44314B23439BB213803B68DB78A9
:10466000012B54D07A683B681B789B0013441B884D
:104670009BB223F4E04323F040039CB284F0200378
:104680009CB27A683B681B789B001A44244B2343F6
:104690009BB213803BE07A683B681B789B00134415
:1046A0001B889CB2234603F48043002B14D07A6805
:1046B0003B681B789B0013441B889BB223F4E043A8
:1046C00023F070039CB27A683B681B789B001A4405
:1046D000144B23439BB213807A683B681B789B0082
:1046E00013441B889BB223F4804323F070039CB2D5
:1046F00084F480539CB284F400539CB27A683B6883
:104700001B789B001A44064B23439BB21380002363
:1047100018460837BD4690BC704700BFC080FFFFF9
:104720008080FFFF80C0FFFF80B483B000AF78605F
:104730000B46FB70FB78002B03D17B688022A3F82B
:104740004C20002318460C37BD465DF8047B7047AB
:1047500080B483B000AF78607B68B3F858309BB208
:104760006FEA43436FEA53439AB27B68A3F8582039
:10477000002318460C37BD465DF8047B704780B4B3
:1047800083B000AF78607B68B3F858309BB2C3F356
:104790000E039AB27B68A3F85820002318460C3702
:1047A000BD465DF8047B704780B485B000AF78608B
:1047B0007B68B3F844309BB2FB60FB681846143743
:1047C000BD465DF8047B704780B483B000AF78606D
:1047D0003960002318460C37BD465DF8047B7047EE
:1047E00080B48DB000AFF860B96011461A460B4630
:1047F000FB801346BB80BB8801335B083B62FB68D0
:10480000FB61BB687B62FA88FB69134403F5806334
:10481000BB623B6AFB621BE07B6A1B78BB617B6A05
:1048200001337B627B6A1B789BB21B029BB21A46E8
:10483000BB6913437B617B699AB2BB6A1A80BB6A0E
:104840000233BB627B6A01337B62FB6A013BFB6222
:10485000FB6A002BE0D100BF00BF3437BD465DF8D6
:10486000047B704780B48BB000AFF860B96011462C
:104870001A460B46FB801346BB80BB885B089BB285
:10488000BB61FB687B61BB68FB61FA887B69134491
:1048900003F580633B62BB697B6218E03B6A1B885F
:1048A0009BB23B613B6A02333B623B69DAB2FB6914
:1048B0001A70FB690133FB613B691B0ADAB2FB69C1
:1048C0001A70FB690133FB617B6A013B7B627B6A87
:1048D000002BE3D1BB8803F001039BB2002B07D070
:1048E0003B6A1B889BB23B613B69DAB2FB691A7079
:1048F00000BF2C37BD465DF8047B704780B582B0A1
:1049000000AF78607B68002B01D101231DE07B683C
:1049100093F83D30DBB2002B06D17B68002283F890
:104920003C207868FDF70EFF7B68022283F83D206B
:104930007B681A687B6804331946104600F04CFA0D
:104940007B68012283F83D20002318460837BD46C6
:1049500080BD000080B485B000AF78607B68022223
:1049600083F83D207B681B689A680E4B1340FB6000
:10497000FB68062B0BD0FB68B3F5803F07D07B6844
:104980001B681A687B681B6842F001021A607B682A
:10499000012283F83D20002318461437BD465DF8F8
:1049A000047B70470700010080B582B000AF7860DB
:1049B0007B681B681B6903F00203022B22D17B6812
:1049C0001B68DB6803F00203022B1BD17B681B68AA
:1049D0006FF002021A617B6801221A777B681B68FC
:1049E0009B6903F00303002B03D0786800F0D5F92E
:1049F00005E0786800F0C7F9786800F0D8F97B68BE
:104A000000221A777B681B681B6903F00403042BE0
:104A100022D17B681B68DB6803F00403042B1BD1E5
:104A20007B681B686FF004021A617B6802221A77A8
:104A30007B681B689B6903F44073002B03D0786884
:104A400000F0ABF905E0786800F09DF9786800F0B7
:104A5000AEF97B6800221A777B681B681B6903F03C
:104A60000803082B22D17B681B68DB6803F008036E
:104A7000082B1BD17B681B686FF008021A617B68EA
:104A800004221A777B681B68DB6903F00303002BA1
:104A900003D0786800F081F905E0786800F073F9D8
:104AA000786800F084F97B6800221A777B681B68BD
:104AB0001B6903F01003102B22D17B681B68DB6895
:104AC00003F01003102B1BD17B681B686FF01002E2
:104AD0001A617B6808221A777B681B68DB6903F41C
:104AE0004073002B03D0786800F057F905E0786830
:104AF00000F049F9786800F05AF97B6800221A77CB
:104B00007B681B681B6903F00103012B0ED17B68D6
:104B10001B68DB6803F00103012B07D17B681B686E
:104B20006FF001021A61786800F023F97B681B6856
:104B30001B6903F08003802B0ED17B681B68DB6848
:104B400003F08003802B07D17B681B686FF0800225
:104B50001A61786800F0AEFA7B681B681B6903F481
:104B60008073B3F5807F0ED17B681B68DB6803F030
:104B70008003802B07D17B681B686FF480721A61F9
:104B8000786800F0A1FA7B681B681B6903F040039A
:104B9000402B0ED17B681B68DB6803F04003402B81
:104BA00007D17B681B686FF040021A61786800F0DB
:104BB00008F97B681B681B6903F02003202B0ED1CA
:104BC0007B681B68DB6803F02003202B07D17B6820
:104BD0001B686FF020021A61786800F061FA00BF6C
:104BE0000837BD4680BD80B584B000AF78603960BD
:104BF0007B6893F83C30012B01D10223B5E07B6840
:104C0000012283F83C207B68022283F83D207B68E8
:104C10001B689B68FB60FB6823F4803323F07703F9
:104C2000FB60FB6823F47F43FB607B681B68FA68CA
:104C30009A603B681B68B3F5005F3ED0B3F5005F38
:104C400000F28780B3F5805F00F08580B3F5805F68
:104C50007FD8702B1AD0702B7BD8602B50D0602B54
:104C600077D8502B3CD0502B73D8402B58D0402BAA
:104C70006FD8302B64D0302B6BD8202B60D0202BFA
:104C800067D8002B5CD0102B5AD062E07B68186884
:104C90003B6899683B685A683B68DB6800F07AF9C2
:104CA0007B681B689B68FB60FB6843F07703FB60D5
:104CB0007B681B68FA689A604EE07B6818683B68FE
:104CC00099683B685A683B68DB6800F063F97B6869
:104CD0001B689A687B681B6842F480429A603BE0DC
:104CE0007B6818683B6859683B68DB681A4600F0C7
:104CF000D7F87B681B685021184600F030F92BE08C
:104D00007B6818683B6859683B68DB681A4600F0A6
:104D1000F6F87B681B686021184600F020F91BE05C
:104D20007B6818683B6859683B68DB681A4600F086
:104D3000B7F87B681B684021184600F010F90BE0BB
:104D40007B681A683B681B681946104600F007F933
:104D500002E000BF00E000BF7B68012283F83D2035
:104D60007B68002283F83C20002318461037BD469C
:104D700080BD80B483B000AF786000BF0C37BD4603
:104D80005DF8047B704780B483B000AF786000BFEB
:104D90000C37BD465DF8047B704780B483B000AF2C
:104DA000786000BF0C37BD465DF8047B704780B467
:104DB00083B000AF786000BF0C37BD465DF8047B60
:104DC000704780B483B000AF786000BF0C37BD4639
:104DD0005DF8047B7047000080B485B000AF786058
:104DE00039607B681B68FB607B682A4A934203D06A
:104DF0007B68B3F1804F08D1FB6823F07003FB6040
:104E00003B685B68FA681343FB607B68214A934206
:104E10000BD07B68B3F1804F07D07B681E4A93426A
:104E200003D07B681D4A934208D1FB6823F440738A
:104E3000FB603B68DB68FA681343FB60FB6823F0A8
:104E400080023B685B691343FB607B68FA681A6009
:104E50003B689A687B68DA623B681A687B689A628A
:104E60007B680C4A934207D07B680B4A934203D07D
:104E70007B680A4A934203D13B681A697B681A63CC
:104E80007B6801225A6100BF1437BD465DF8047B80
:104E9000704700BF002C0140004001400044014029
:104EA00080B487B000AFF860B9607A60FB681B6AB5
:104EB0007B61FB681B6A23F00102FB681A62FB68D6
:104EC0009B693B613B6923F0F0033B617B681B01FD
:104ED0003A6913433B617B6923F00A037B617A697A
:104EE000BB6813437B61FB683A699A61FB687A6926
:104EF0001A6200BF1C37BD465DF8047B704780B462
:104F000087B000AFF860B9607A60FB681B6A23F075
:104F10001002FB681A62FB689B697B61FB681B6A75
:104F20003B617B6923F470437B617B681B037A6977
:104F300013437B613B6923F0A0033B61BB681B010A
:104F40003A6913433B61FB687A699A61FB683A6985
:104F50001A6200BF1C37BD465DF8047B704780B401
:104F600085B000AF786039607B689B68FB60FB6848
:104F700023F07003FB603A68FB68134343F00703B8
:104F8000FB607B68FA689A6000BF1437BD465DF825
:104F9000047B704780B487B000AFF860B9607A6076
:104FA0003B60FB689B687B617B6923F47F437B618B
:104FB0003B681A027B681A43BB6813437A69134340
:104FC0007B61FB687A699A6000BF1C37BD465DF85B
:104FD000047B704780B485B000AF786039607B682F
:104FE00093F83C30012B01D102234FE07B68012272
:104FF00083F83C207B68022283F83D207B681B6895
:105000005B68FB607B681B689B68BB607B681B6898
:10501000214A934208D1FB6823F47003FB603B688C
:105020005B68FA681343FB60FB6823F07003FB6066
:105030003B681B68FA681343FB607B681B68FA686F
:105040005A607B681B68144A934209D07B681B68CE
:10505000B3F1804F04D07B681B68104A93420CD197
:10506000BB6823F08003BB603B689B68BA6813434E
:10507000BB607B681B68BA689A607B68012283F812
:105080003D207B68002283F83C200023184614371B
:10509000BD465DF8047B7047002C01400040014094
:1050A00080B483B000AF786000BF0C37BD465DF8B8
:1050B000047B704780B483B000AF786000BF0C37CA
:1050C000BD465DF8047B704780B483B000AF786064
:1050D00000BF0C37BD465DF8047B704780B582B0D9
:1050E00000AF0023FB71032002F00AFB002000F058
:1050F0000DF80346002B02D00123FB7101E0FDF700
:105100009FFAFB7918460837BD4680BD80B584B04C
:1051100000AF78600023FB73164B1B68002B22D076
:10512000154B1A68134B1B684FF47A71B1FBF3F3FC
:10513000B2FBF3F3184602F026FB0346002B0FD117
:105140007B680F2B09D8002279684FF0FF3002F0FE
:10515000E2FA0A4A7B68136007E00123FB7304E06C
:105160000123FB7301E00123FB73FB7B184610371F
:10517000BD4680BD04010020080100200001002080
:1051800080B400AF054B1A68054B1B681344034AF3
:10519000136000BFBD465DF8047B704730550020AA
:1051A0000401002080B400AF034B1B681846BD46C5
:1051B0005DF8047B704700BF3055002080B584B097
:1051C00000AF7860FFF7EEFFB8607B68FB60FB68BC
:1051D000B3F1FF3F04D0094B1B68FA681344FB602E
:1051E00000BFFFF7DFFF0246BB68D31AFA689A4296
:1051F000F7D800BF00BF1037BD4680BD04010020B6
:1052000080B588B000AF78607B68002B02D10123A5
:1052100000F011BCA04B9B6803F00C03BB619E4BDC
:10522000DB6803F003037B617B681B6803F01003FA
:10523000002B00F0E480BB69002B07D0BB690C2B6E
:1052400040F08B807B69012B40F08780924B1B687C
:1052500003F00203002B05D07B689B69002B01D172
:105260000123E8E37B681A6A8B4B1B6803F0080391
:10527000002B04D0884B1B6803F0F00305E0864B3D
:10528000D3F894301B0903F0F003934223D27B68D8
:105290001B6A184600F042FD0346002B01D0012393
:1052A000C9E37D4B1B687C4A43F0080313607A4BCB
:1052B0001B6823F0F0027B681B6A774913430B607D
:1052C000754B5B6823F47F427B68DB691B02724984
:1052D00013434B6025E0704B1B686F4A43F0080393
:1052E00013606D4B1B6823F0F0027B681B6A6A49F0
:1052F00013430B60684B5B6823F47F427B68DB6978
:105300001B02654913434B60BB69002B09D17B68C5
:105310001B6A184600F002FD0346002B01D0012352
:1053200089E300F06FFC02465B4B9B681B0903F0AE
:105330000F035A49CB5C03F01F0322FA03F3584AC8
:105340001360584B1B681846FFF7E0FE0346FB73DB
:10535000FB7B002B52D0FB7B6DE37B689B69002BB2
:1053600032D04D4B1B684C4A43F001031360FFF7EA
:1053700019FF386108E0FFF715FF02463B69D31AB1
:10538000022B01D9032356E3434B1B6803F00203AE
:10539000002BF0D0404B1B683F4A43F008031360DA
:1053A0003D4B1B6823F0F0027B681B6A3A491343AC
:1053B0000B60394B5B6823F47F427B68DB691B021F
:1053C000354913434B601AE0334B1B68324A23F0D4
:1053D00001031360FFF7E6FE386108E0FFF7E2FE25
:1053E00002463B69D31A022B01D9032323E32A4B3C
:1053F0001B6803F00203002BF0D100E000BF7B68C4
:105400001B6803F00103002B73D0BB69082B05D088
:10541000BB690C2B0ED17B69032B0BD11E4B1B6878
:1054200003F40033002B63D07B685B68002B5FD1F3
:10543000012300E37B685B68B3F5803F06D1164B20
:105440001B68154A43F4803313601DE07B685B687A
:10545000B3F5A02F0CD1104B1B680F4A43F48023E7
:1054600013600D4B1B680C4A43F4803313600BE050
:10547000094B1B68084A23F480331360064B1B68F2
:10548000054A23F4802313607B685B68002B1BD0E4
:10549000FFF788FE386110E000100240A4D3000836
:1054A0000801002000010020FFF77CFE02463B6956
:1054B000D31A642B01D90323BDE2AF4B1B6803F45D
:1054C0000033002BF0D014E0FFF76CFE386108E0E9
:1054D000FFF768FE02463B69D31A642B01D9032308
:1054E000A9E2A54B1B6803F40033002BF0D100E0C8
:1054F00000BF7B681B6803F00203002B60D0BB6910
:10550000042B05D0BB690C2B19D17B69022B16D15A
:10551000994B1B6803F48063002B05D07B68DB6824
:10552000002B01D1012386E2934B5B6823F0F852F4
:105530007B681B691B06904913434B6040E07B6806
:10554000DB68002B23D08C4B1B688B4A43F48073A1
:105550001360FFF727FE386108E0FFF723FE0246DD
:105560003B69D31A022B01D9032364E2824B1B68E7
:1055700003F48063002BF0D07F4B5B6823F0F8527C
:105580007B681B691B067C4913434B6018E07A4B10
:105590001B68794A23F480731360FFF703FE3861B8
:1055A00008E0FFF7FFFD02463B69D31A022B01D941
:1055B000032340E2704B1B6803F48063002BF0D19F
:1055C0007B681B6803F00803002B3CD07B685B6999
:1055D000002B1CD0684BD3F89430674A43F001038A
:1055E000C2F89430FFF7DEFD386108E0FFF7DAFD1E
:1055F00002463B69D31A022B01D903231BE25E4BFF
:10560000D3F8943003F00203002BEFD01BE05A4B89
:10561000D3F89430584A23F00103C2F89430FFF7CE
:10562000C1FD386108E0FFF7BDFD02463B69D31AB2
:10563000022B01D90323FEE14F4BD3F8943003F042
:105640000203002BEFD17B681B6803F00403002BDF
:1056500000F0A6800023FB77474B9B6D03F080533F
:10566000002B0DD1444B9B6D434A43F0805393650F
:10567000414B9B6D03F08053BB60BB680123FB77FC
:105680003E4B1B6803F48073002B18D13B4B1B6807
:105690003A4A43F480731360FFF784FD386108E0F1
:1056A000FFF780FD02463B69D31A022B01D9032381
:1056B000C1E1324B1B6803F48073002BF0D07B6890
:1056C0009B68012B08D12C4BD3F890302A4A43F029
:1056D0000103C2F8903024E07B689B68052B10D151
:1056E000254BD3F89030244A43F00403C2F890309D
:1056F000214BD3F89030204A43F00103C2F8903098
:105700000FE01D4BD3F890301B4A23F00103C2F881
:105710009030194BD3F89030174A23F00403C2F8A5
:1057200090307B689B68002B16D0FFF73BFD3861FB
:105730000AE0FFF737FD02463B69D31A41F288328F
:10574000934201D9032376E10B4BD3F8903003F059
:105750000203002BEDD01AE0FFF724FD38610FE0C3
:10576000FFF720FD02463B69D31A41F2883293428B
:1057700006D903235FE100BF001002400070004023
:10578000AA4BD3F8903003F00203002BE8D1FB7F43
:10579000012B05D1A54B9B6DA44A23F08053936543
:1057A0007B681B6803F02003002B3CD07B685B6A9E
:1057B000002B1CD09D4BD3F898309C4A43F001033A
:1057C000C2F89830FFF7EEFC386108E0FFF7EAFC1A
:1057D00002463B69D31A022B01D903232BE1934BD9
:1057E000D3F8983003F00203002BEFD01BE08F4B6F
:1057F000D3F898308D4A23F00103C2F89830FFF7B0
:10580000D1FC386108E0FFF7CDFC02463B69D31AB2
:10581000022B01D903230EE1844BD3F8983003F017
:105820000203002BEFD17B689B6A002B00F0028102
:105830007B689B6A022B40F0C5807C4BDB687B61F8
:105840007B6903F003027B68DB6A9A422CD17B6997
:1058500003F070027B681B6B013B1B019A4223D152
:105860007B6903F4FE427B685B6B1B029A421BD18F
:105870007B6903F078427B689B6BDB069A4213D10D
:105880007B6903F4C0027B68DB6B5B08013B5B0553
:105890009A4209D17B6903F0C0627B681B6C5B088C
:1058A000013B5B069A4267D0BB690C2B62D05F4B11
:1058B0001B6803F08063002B01D00123BBE05B4B2E
:1058C0001B685A4A23F080731360FFF76BFC386142
:1058D00008E0FFF767FC02463B69D31A022B01D9A7
:1058E0000323A8E0514B1B6803F00073002BF0D199
:1058F0004E4BDA684E4B13407A68D16A7A68126B65
:10590000013A120111437A68526B120211437A680C
:10591000D26B5208013A520511437A68126C520850
:10592000013A520611437A68926BD2060A433F4904
:105930001343CB603D4B1B683C4A43F080731360BC
:105940003A4BDB68394A43F08073D360FFF72AFC97
:10595000386108E0FFF726FC02463B69D31A022BA8
:1059600001D9032367E0314B1B6803F00073002B60
:10597000F0D05FE001235EE02C4B1B6803F0007366
:10598000002B57D1294B1B68284A43F080731360C2
:10599000264BDB68254A43F08073D360FFF702FC97
:1059A000386108E0FFF7FEFB02463B69D31A022B81
:1059B00001D903233FE01D4B1B6803F00073002B4C
:1059C000F0D037E0BB690C2B2DD0184B1B68174A61
:1059D00023F080731360154B1B6803F00063002BEA
:1059E00005D1124BDB68114A23F00303D3600F4B40
:1059F000DB680E4A23F0887323F48033D360FFF70B
:105A0000D1FB386108E0FFF7CDFB02463B69D31AB2
:105A1000022B01D903230EE0044B1B6803F0007333
:105A2000002BF0D106E0012305E000BF001002408A
:105A30008C809D01002318462037BD4680BD00BFE5
:105A400080B584B000AF786039607B68002B01D1ED
:105A50000123C8E0664B1B6803F007033A689A42CB
:105A600010D9634B1B6823F0070261493B6813435D
:105A70000B605F4B1B6803F007033A689A4201D042
:105A80000123B0E07B681B6803F00103002B4CD0BE
:105A90007B685B68032B07D1564B1B6803F00073D0
:105AA000002B21D101239EE07B685B68022B07D18C
:105AB000504B1B6803F40033002B15D1012392E0F7
:105AC0007B685B68002B07D14A4B1B6803F002031D
:105AD000002B09D1012386E0464B1B6803F4806349
