:020000040800F2
:1000000040730020A10100081F2B00085F27000893
:100010001D2B0008630800088F4600080000000040
:10002000000000000000000000000000E7300008B1
:10003000D508000800000000C92D0008ED300008B8
:10004000BB010008BB010008BB010008BB010008A0
:10005000BB010008BB010008BB010008BB01000890
:10006000D7080008BB010008DD080008BB01000834
:10007000BB010008BB010008BB010008BB01000870
:10008000BB010008BB010008BB010008BB01000860
:10009000BB010008BB010008BB010008BB01000850
:1000A000BB010008BB010008BB010008BB01000840
:1000B000B93100080000000000000000BB0100088A
:1000C000BB010008BB010008BB010008BB01000820
:1000D000BB010008BB010008BB010008BB01000810
:1000E000BB010008BB010008000000000000000088
:1000F0000000000000000000000000000000000000
:1001000000000000BB01000800000000BB01000867
:100110000000000000000000BB010008BB01000857
:10012000BB010008BB010008BB010008BB010008BF
:10013000BB010008000000000000000000000000FB
:10014000BB010008BB010008BB0100081D460008F8
:10015000BB010008BB010008BB010008BB0100088F
:10016000BB010008BB010008BB0100080000000043
:10017000BB010008BB010008BB0100080000000033
:10018000BB010008BB010008BB010008DFF80CD070
:1001900000F02AFB00480047515D00084073002032
:1001A0000648804706480047FEE7FEE7FEE7FEE711
:1001B000FEE7FEE7FEE7FEE7FEE7FEE77531000833
:1001C0008D01000840EA01039B0703D009E008C93C
:1001D000121F08C0042AFAD203E011F8013B00F80C
:1001E000013B521EF9D27047D2B201E000F8012B58
:1001F000491EFBD270470022F6E710B513460A46A7
:1002000004461946FFF7F0FF204610BD30B50446FE
:100210000020034600E05B1C934203D2E05CCD5C0F
:10022000401BF8D030BD2DE9FE4F804681EA030027
:10023000C00F0C46009021F0004123F00045B8EBC0
:100240000200A94105D24046214690461C460B4675
:10025000024623F00040104347D0270DC7F30A00A1
:10026000C3F30A510290401A019040286BDAC3F39D
:10027000130040F4801B0098924620B10023D2EB7B
:10028000030A63EB0B0B01985946C0F1400250463C
:1002900000F0ECF906460D4650465946019A00F02A
:1002A00004FA10EB08006141002487EA115284EA45
:1002B000E7731A4340D0009A62B3019A012A4FEAC9
:1002C000075215DC001B61EB02014FF0004202EA0D
:1002D0000752CDE90042001C41F5801132462B4601
:1002E00000F004FA03B000F045B840462146F9E7B3
:1002F000001B61EB0201001C41F5801300185B41FB
:100300002018A2F5001747EB030140EAD570B61993
:100310006D4111E06D084FEA360645EAC0754FEAB7
:100320000752001B61EB0201001C41F580114908D6
:100330004FEA30000019514132462B4603B000F01D
:100340001CB800F0C4B90098012240000023D0EB93
:10035000020263EBE073009821464FEAE074B8EBC9
:10036000000061EB0401E9E783F000435BE781F003
:10037000004158E730BCBDE8C08F30BCBDE8C04F7D
:10038000FFF7DFBF2DE9FE4F81EA030404F00044CC
:1003900021F0004100944FF0000B23F0004350EA9D
:1003A00001045ED052EA03045BD0C3F30A54C1F3E4
:1003B0000A552C44A4F2F3340194A0FB0254C1F377
:1003C000130141F48011C3F3130343F4801301FBC1
:1003D000024400FB034E840A970A44EA815447EA28
:1003E0008357A4FB076802958D0A05FB07854FEA32
:1003F000932C04FB0C542705029D4FEA065847EA4C
:100400001637B5EB08056EEB070C870E920E47EA20
:10041000811742EA8312A7FB0201B6EB0B0164EBE2
:1004200000042B0D43EA0C335E1844EB1C50DA46F3
:100430005146E7FB0201C5F313044FEA0B3343EACD
:1004400014534FEA0432019C43EA0603A4F10C045E
:100450000294009CCDE900B400F048F903B000F02C
:1004600003B800200146F9E730BCBDE8C08F2DE994
:10047000F04D81EA030404F0004B21F000451446DE
:100480004FF0000A23F0004150EA050220D054EA60
:1004900001021DD0C5F30A570246C5F31303C1F389
:1004A0001300C1F30A5640F4801543F48013A7EB00
:1004B0000608101BD64608F2FD3873EB050002D380
:1004C00008F1010801E092185B41B8F1000F03DA6E
:1004D00000200146BDE8F08D00204FF48011064653
:1004E00084460EE0171B73EB050705D3121B63EB65
:1004F000050306434CEA010C49084FEA3000921804
:100500005B4150EA0107EDD152EA030012D082EAC2
:10051000040083EA0501084305D0101BAB4106D255
:100520000122002306E000224FF0004302E06FF0BA
:10053000010253101AEB06004CEB085110EB0A00B5
:1005400041EB0B01BDE8F04D00F0C1B80EB540F233
:10055000334102910021CDE900110A460B4600F01B
:10056000C5F803B000BD3EB5CA17CB0F00245040FC
:100570005140C0186141DA0740F233430094CDE99D
:1005800001232246234600F0B1F803B030BD70B518
:10059000C1F30A5201F000450024C1F3130140F2F7
:1005A000FF3341F480119A4202DA0020014670BD07
:1005B00040F233439A42A2F2334203DC524200F04B
:1005C00064F801E000F052F82C43F0D00023D0EBA7
:1005D000030063EB010170BD30B50B4601460020FE
:1005E0002022012409E021FA02F59D4205D303FAF5
:1005F00002F5491B04FA02F52844151EA2F1010276
:10060000F1DC30BD2DE9F05F0546002092469B46A7
:1006100088460646814640241BE028464146474618
:10062000224600F032F853465A46C01A914110D380
:1006300011461846224600F019F82D1A67EB0108FA
:100640004F4622460120002100F010F817EB000968
:100650004E41201EA4F10104DFDC484631462A4603
:10066000434600F000B830BCBDE8C09F202A04DB40
:10067000203A00FA02F1002070479140C2F12003B5
:1006800020FA03F3194390407047202A04DB203AF4
:1006900021FA02F00021704721FA02F3D040C2F1A2
:1006A00020029140084319467047202A06DBCB17E9
:1006B000203A41FA02F043EAE07306E041FA02F31D
:1006C000D040C2F12002914008431946704710B54E
:1006D000141E73F1000408DA401C41F10001921865
:1006E0005B411A4301D120F0010010BD2DE9F04D0E
:1006F00092469B4611B1B1FA81F202E0B0FA80F263
:1007000020329046FFF7B2FF04460F4640EA0A0047
:1007100041EA0B0153465A46084313D0114653EAA7
:10072000010019D0C8F140025046FFF7AEFF054660
:100730000E46504659464246FFF798FF084305D0FB
:10074000012004E020463946BDE8F08D0020054335
:1007500046EAE0762C4337430A986305E40AA0EBA7
:1007600008000022FD0A44EA47540A3002D500205E
:100770000146E9E7010510196941DDE9084500195D
:100780006941BDE8F04DA2E7C1F30A52C1F313017C
:1007900040F2FF3341F480119A4202DA0020014610
:1007A000704740F233439A42A2F2334202DC524293
:1007B000FFF76BBFFFF75ABF30B5041E71F100049D
:1007C00004DB4FF00044404264EB0101141E73F15E
:1007D000000405DB1C464FF00043524263EB040368
:1007E000994208BF904230BD064C074D06E0E068D4
:1007F00040F0010394E8070098471034AC42F6D368
:10080000FFF7C8FC9C630008BC63000870B58C1837
:1008100010F8015B15F0070301D110F8013B2A1114
:1008200006D110F8012B03E010F8016B01F8016B01
:100830005B1EF9D12B0705D40023521E0DD401F8FD
:10084000013BFAE710F8013BCB1A921C03E013F8C6
:10085000015B01F8015B521EF9D5A142D8D30020FB
:1008600070BDFEE7002070470020704710B50022E1
:100870000449054802F004FE0449034802F0FAFD69
:10088000002010BD14100020D40200202C0C0020E9
:1008900010B50146034802F0EDFD024802F0CEFD1E
:1008A000002010BDD4020020094A10B5D2F8B822A9
:1008B000D2F814220AB1012010BD0A4601460448AC
:1008C00002F0DEFDBDE81040014802F037BE000036
:1008D000D40200207047042000F0DAB8102000F0A5
:1008E000D7B84109890001F1E021D1F8001100F0E9
:1008F0001F0201209040014201D0012070470020DA
:100900007047704770B5044600F0B8F90546601CA2
:1009100002D004484068044400F0B0F9401BA042F3
:10092000FAD370BD740100202DE9F84F0023012691
:10093000DFF814C10F2780E006FA03F414EA01027D
:100940007AD023F003056544AA46D5F808909D07A0
:100950004FEA157E07FA0EF505EA090B0095B0F18E
:10096000904F05D0394DA84205D14FF0010816E04F
:100970004FF0000813E0364DA84202D14FF00208B4
:100980000DE0344DA84202D14FF0030807E0324D8C
:10099000A84202D14FF0040801E04FF0070808FA1E
:1009A0000EF8D84524D1DFF8B480D8F8009029EAB1
:1009B0000209C8F8009008F10408D8F8009029EA64
:1009C0000209C8F8009008F10408D8F8009029EA54
:1009D0000209C8F8009008F10408D8F800509543BF
:1009E000C8F80050009DDAF80820AA43CAF8082089
:1009F000D0F800804FEA4309032202FA09F248EADC
:100A00000208C0F80080DD0800EB8505AA46D5F88D
:100A100020804FEA43794FEAD96907FA09F528EAB5
:100A20000508CAF820808568954385604568A54318
:100A30004560C4689443C4605B1C31FA03F27FF4E0
:100A40007BAF00F00DB8000000000140000400483A
:100A500000080048000C0048001000480004014055
:100A600018BCBDE8E08F000008280AD004280AD08E
:100A7000102805D105488178042901D0042181700E
:100A8000704705F0A5BB05F021BA000080000020EA
:100A9000044910B50A68024202D00860FFF7E4FF7B
:100AA00010BD0000140401402DE9FC4FDFF894A1B3
:100AB000002301250AF1040B03244FF00F0C0BF166
:100AC000040EB8E005FA03F632406FD04F68012FEC
:100AD00005D0022F03D0112F01D0122F17D1D0F83B
:100AE00008905F0004FA07F829EA08090097D1F88E
:100AF0000C8008FA07F848EA0908C0F80880476837
:100B0000B7430E79C6F300169E403E434660C66862
:100B10004FEA430804FA08F7BE4301978F6807FAC3
:100B200008F73743C7604E68022E01D0122E13D14A
:100B3000DE0800EB86060096366A5F07FF0E0CFAA9
:100B400007F926EA0906D1F8109009FA07F949EAE7
:100B50000609009EC6F820900668019FBE430F79E3
:100B600007F0030707FA08F7374307604E68F600F7
:100B700060D5354E376E47F001073766366E23F085
:100B8000030706F001060096304E3E44B146B668B3
:100B90009F074FEA17780CFA08F7BE43B0F1904F61
:100BA00005D02B4FB84204D1012712E042E00027C4
:100BB0000FE0284FB84201D102270AE0264FB84281
:100BC00001D1032705E0254FB84201D1042700E0F9
:100BD000072707FA08F73743C9F80870DAF8006002
:100BE0005746D1F8048096435FEAC83800D51643CB
:100BF0003E60DBF800605F46D1F8048096435FEA10
:100C0000883800D516433E60DEF800607746D1F89C
:100C1000048096435FEAC82800D516433E60094F1A
:100C20000C373E68D1F8048096435FEA882800D5E7
:100C300016433E605B1C0A6832FA03F67FF442AF4B
:100C400000F00EB800040140001002400000014016
:100C50000004004800080048000C0048001000484C
:100C60001CBCBDE8E08F0069084000D0012070473F
:100C70000AB1816170478162704700000148806855
:100C800070470000740100200248816842681144E6
:100C9000816070477401002010B50024032000F02B
:100CA00081F8002000F008F808B1012401E000F00C
:100CB00025F8204610BD000070B50E4E05460024F4
:100CC000706898B14FF47A71B1FBF0F00A49096885
:100CD000B1FBF0F001F070FB40B9102D06D20022FC
:100CE0002946501E00F03EF8356000E00124204601
:100CF00070BD00007401002080010020094808B583
:100D0000016E41F001010166016E01F001010091E7
:100D1000816D41F080518165806D00F080500090C0
:100D200008BD00000010024000280DDB00F01F028B
:100D3000012191404009800000F1E020C0F88011BD
:100D4000BFF34F8FBFF36F8F7047002809DB00F0B0
:100D50001F02012191404009800000F1E020C0F80D
:100D600000117047F0B40E4B1B680C46C3F302230E
:100D7000C3F10705042D00D90425191D072901D247
:100D8000002300E0DB1E012606FA05F1491E214082
:100D900099409E40761E16403143F0BC03F088BC5B
:100DA0000CED00E0064900F0070208684FF6FF036B
:100DB000184040EA0220034A1043086070470000D0
:100DC0000CED00E00000FA0501220168C0F868227D
:100DD000002280F8602231F8540F40F001000880B2
:100DE000088840F0020008801046704770B50F4D2B
:100DF000044669B101290AD1D4F8700202F01BFF40
:100E0000A069002803D0286840F00600286070BD63
:100E1000A06928B102F06CF9286820F0060028606B
:100E2000D4F87002BDE8704002F08FBE10ED00E013
:100E300010B50C0605D501F0070100EB4110283074
:100E400003E000EB411000F5947099B232B1012239
:100E500002730181190C4181002010BD0022027330
:100E6000C180F9E700EB4112D0F87002D26B02F0BA
:100E700026BD00EB4112D0F87002D2F83C2102F0FE
:100E800081BD70B504460B0601F0070004EB40116C
:100E90004FF001024FF0000503D581F829202831D9
:100EA00003E081F8295101F59471087094F8280243
:100EB000012808D084F82822206803F0D6F984F8A5
:100EC0002852002070BD022070BD70B5044601F0AC
:100ED0000F006268904201D9012070BD0B0601F03D
:100EE000070004EB40114FF001024FF0000503D55D
:100EF00081F82920283103E081F8295101F5947106
:100F00008D70087094F82802012808D084F82822EF
:100F1000206803F058FA84F82852002070BD02209F
:100F200070BD01F0070100EB4110D0F8440170479B
:100F30002DE9F04104460F0601F0070004EB4011D3
:100F40004FF001064FF0000503D581F829602831E4
:100F500003E081F8295101F5947108700A61CB70A2
:100F60004A7802B1C881022B00D10D7194F8280291
:100F7000012809D084F82862206803F041F8284647
:100F800084F82852BDE8F0810220FBE770B50C46DA
:100F900001F0070500EB4511C1E94F230022C1F81C
:100FA000442181F8292181F8285101F594716207C3
:100FB000006803F05DFA002070BD70B504460D4670
:100FC00001F007006168884201D9012070BD29063F
:100FD0004FF000064FF0010205D504EB401181F8F7
:100FE0002920283105E004EB451181F8296101F53C
:100FF00094718A70087094F82802012807D084F848
:101000002822206803F01BFA680702D006E00220BD
:1010100070BD04F50C71206803F0D3F984F82862E0
:10102000002070BD70B50C4601F0070500EB4511BE
:10103000C1E90F2300224A64012281F8292001F826
:10104000285F6207006803F013FA002070BD10B536
:101050000446006803F0E8FA000402D5204601F0D7
:101060005FFD206803F0E0FA40050CD5206830F8F9
:10107000441F21F480610180204600F02FF90021F7
:10108000204600F057F9206803F0CEFA400405D559
:10109000206830F8441F21F480410180206803F06B
:1010A000C3FA800405D5206830F8441F21F40051AC
:1010B0000180206803F0B8FAC0041FD5206830F81A
:1010C000401F21F004010180206830F8401F21F00A
:1010D0000801018094F86002012806D1002084F8FC
:1010E000600201462046FFF781FE204600F00AF923
:1010F000206830F8441F21F480510180206803F0FB
:1011000093FA000514D5206830F8401F41F008011B
:101110000180206830F8441F21F4006101802068BC
:1011200030F8401F41F004010180204600F032F900
:10113000206803F079FA00060BD5206830F8441FC8
:1011400021F08001018094F86002E0B1204600F0B7
:1011500021F9206803F068FA800508D5206830F886
:10116000441F21F400710180204600F0DFF8206860
:1011700003F05AFAC00505D5206830F8441F21F461
:101180008071018010BD206830F8401F41F00401DB
:101190000180206830F8401F41F0080101800120E3
:1011A00084F860022068B0F854003C2101EA900005
:1011B000C4F8640201212046FFF718FEC9E70000C9
:1011C0002DE9F04186B0040004D094F829020025EE
:1011D00020B108E0012006B0BDE8F08184F8285273
:1011E000204600F05DF8032084F82902206803F00F
:1011F000E0F804F11001142288466846FEF7E2FF89
:1012000094E80F0003F02FF80227B0BB00212068FC
:1012100003F021FA002001260DE000BF04EB40118D
:1012200081F8296001F8280FC881CD700D614D61EA
:10123000401CC0B28D6161688142EFD800200FE090
:1012400004EB401181F8295181F8280181F82B51D4
:10125000C1F83851C1F83C51401CC0B2C1F84051EE
:1012600061688142ECD8142241466846FEF7AAFF25
:1012700094E80F0003F08EF810B184F82972A9E702
:1012800084F8245084F82962E069012802D12046BC
:10129000FFF79AFD206803F076F800209BE7000036
:1012A00008B500680B49884212D10B48816D41F0A6
:1012B00080618165806D002200F0806000901146A1
:1012C0004320FFF74FFDBDE808404320FFF73DBD39
:1012D00008BD0000006800400010024070B50446E0
:1012E00080680125022801D0FFF70BFB2946D4F8BE
:1012F000700202F040FCD4F87002BDE8704002F0C9
:10130000FCBB000010B50446806930B10648016896
:1013100021F00601016001F0EBFED4F87002BDE897
:10132000104002F012BC000010ED00E0D0F8700296
:1013300002F015BC10B5044690F8280201280BD025
:10134000012084F8280284F82410206803F085F92D
:10135000002084F8280210BD022010BDD0F87022B1
:1013600000F50C71104602F019BC10B5044690F857
:10137000280201280CD0012084F82802206802F0FD
:10138000FBFF206803F042F9002084F8280210BD1A
:10139000022010BD10B50446D0F8700202F04BFCDC
:1013A000A069002804D00348016841F006010160EB
:1013B00010BD000010ED00E01649B0F5007F086890
:1013C000C0F3412009D0022805D0086820F4C0608D
:1013D00040F480600860002070470128FBD0086856
:1013E00020F4C06040F4007008600B4832220068AE
:1013F00050430A4AB0FBF2F0401C00E0401E4A692C
:10140000520501D50028F9D148694005E3D50320EC
:1014100070470000007000408001002040420F0033
:101420000248416841F480614160704700700040AB
:101430000248006800F4C06070470000007000407F
:101440002DE9F84F044600270088B54D3E460005BB
:1014500015D5606C60B1B0F5000F04D0B0F5400F49
:101460002BD001270AE0E86840F48030E86024E0EF
:101470000021201D01F0AAFC07001ED03E46206876
:1014800080033AD5A86D4FF00008C00009D4A86DBC
:1014900040F08050A865A86D4FF0010800F0805022
:1014A0000090DFF880A2DAF8001041F48071CAF8E9
:1014B0000010FFF7E3FB814610E0D5F88800616C6F
:1014C00020F440000843C5F88800D8E7FFF7D6FBB2
:1014D000A0EB0900022801D9032705E0DAF8000093
:1014E000C005F3D5002F7DD04FEA0706B8F1000FF5
:1014F00003D0A86D20F08050A8652078C00707D0E1
:10150000D5F88800216A20F003000843C5F8880058
:101510002078800707D5D5F88800616A20F00C0094
:101520000843C5F888002078400707D5D5F888001B
:10153000A16A20F030000843C5F8880020788006B2
:1015400007D5D5F88800E16A20F440600843C5F863
:1015500088002088800507D5D5F88800E16B20F445
:1015600040200843C5F888002088400507D5D5F8F5
:101570008800216C20F440100843C5F888002078CA
:10158000400607D5D5F88800216B20F44050084369
:10159000C5F888002078000607D5D5F88800616B6B
:1015A00020F440400843C5F888002088C00507D5CE
:1015B000D5F88800A16B20F440300843C5F88800B6
:1015C00020884FF0006780044FF0806850D5D5F830
:1015D0008800A16C20F040600843C5F88800A06C2A
:1015E000B84200E005E03BD1E86840F48010E860D4
:1015F0003EE0D5F8900010F4407014D0E16D8142C7
:1016000011D0D5F89000D5F8901020F4407041F436
:101610008031C5F89010D5F8901021F48031C5F8CC
:101620009010C5F89000C00711D0FFF727FB0746C0
:1016300041F2883907E000BFFFF720FBC11B494595
:1016400001D9032652E7D5F890008007F4D5D5F8E4
:101650009000E16D20F440700843C5F8900045E724
:10166000404505D10121201D01F0B0FB00B1064627
:101670002068000317D5D5F88800E16C20F04060A1
:101680000843C5F88800E06CB84204D1E86840F42B
:101690008010E86007E0404505D10121201D01F0E0
:1016A00095FB00B106462068400317D5D5F88800A1
:1016B000216D20F040600843C5F88800206DB842D5
:1016C00004D1E86840F48010E86007E0404505D1A7
:1016D0000121201D01F07AFB00B10646208840045C
:1016E00011D5D5F88800616D20F040500843C5F849
:1016F0008800606DB0F1805F05D10221201D01F0EE
:1017000065FB00B106462088000406D555F8880F11
:10171000A16D20F0804008432860304600F004B8F6
:10172000001002400070004018BCBDE8E08F0000CF
:101730002DE9F0470F46050058D0404E306800F0C4
:101740000700B84209D2306820F007003843306003
:10175000306800F00700B84248D12878384CC007FC
:101760002CD06868032811D0022812D0216898B1C3
:10177000490500293ADAA16821F003010143A1607B
:10178000FFF77CFA804641F2883910E02168890130
:10179000EFE721688903ECE78907EAE7FFF76EFACC
:1017A000A0EB0801494502D90320BDE8F087A068F5
:1017B000696800F00C00B0EB810FEFD1287880074A
:1017C00005D5A068A96820F0F0000843A060306843
:1017D00000F00700B8420BD9306820F0070038430A
:1017E0003060306800F00700B84201D00120DCE72B
:1017F0002878400705D5A068E96820F4E060084330
:10180000A0602878000706D5A068296920F46050F8
:1018100040EAC100A06000F01BF8A168094AC1F3CA
:101820000311515C01F01F01C840074908600748D7
:101830000068BDE8F047FFF73FBA00000020024013
:10184000001002405C630008800100207401002049
:1018500070B52549002318468A68CC6812F00C023E
:1018600004F00306214C4FEA640509D00C2A05D088
:10187000042A32D0082A00D1284670BD012E10D18A
:101880000B681B0704D4D1F89430C3F3032302E0A0
:101890000B68C3F30313164E56F82330DAB10C2A43
:1018A000EBD1C86800F00300022818D0032818D034
:1018B0001846CA68CB68C2F30212C3F30623434337
:1018C000521CB3FBF2F2C868C0F34160401C4000F8
:1018D000B2FBF0F070BD184670BD204670BD2046CA
:1018E000E7E72846E5E70000001002400024F40086
:1018F0006C6300082DE9F84304006FD0FE4DA86822
:1019000000F00C06E86800F003072078C00664D5F4
:1019100076B10C2E01D1012F0AD0A06900282868C9
:101920007AD040F001002860FFF7A8F980465DE01A
:101930002868800702D5A0690028DED0216A2868BF
:10194000000703D5286800F0F00004E0D5F8940003
:10195000F02202EA1010814216D9084601F0CCFAB2
:1019600000283BD1286840F0080028602868216AD8
:1019700020F0F000084328606868E16920F47F40A7
:1019800040EA0120686016E0286840F008002860FE
:101990002868216A20F0F000084328606868E1693F
:1019A00020F47F4040EA0120686026B9206A01F0F7
:1019B000A3FA0028D5D1FFF74BFFA968CF4AC1F39E
:1019C0000311515C01F01F01C840CD490860CD48AA
:1019D0000068FFF771F900287ED12EE0CAE000BF51
:1019E000FFF74CF9A0EB0800022876D8286880079A
:1019F000F6D5286840F0080028602868216A20F0A1
:101A0000F000084328606868E16920F47F4040EAFC
:101A10000120686011E0FFE720F001002860FFF777
:101A20002DF9804606E000BFFFF728F9A0EB08007B
:101A30000228DAD828688007F6D42078C00740D07A
:101A4000082E18D00C2E01D1032F14D06068B0F5E9
:101A5000803F17D0B0F5A02F286817D020F4803031
:101A60002860286820F4802028606068E0B1FFF7D3
:101A700005F9804614E02868800322D560680028B4
:101A800078D01EE0286840F48030EDE740F48020F4
:101A90002860F7E7FFF7F2F8A0EB08006428A4D865
:101AA00028688003F6D50CE0FFF7E8F8804605E0EB
:101AB000FFF7E4F8A0EB0800642896D828688003B4
:101AC000F6D4207880073BD5042E11D00C2E01D1FE
:101AD000022F0DD0E06801E0B6E1FFE000282868A1
:101AE0001ED040F480702860FFF7C8F807460CE06D
:101AF000286840050CD5E0680028C1D008E000BF88
:101B0000FFF7BCF8C01B022893D828684005F7D51A
:101B10006868217C20F0F85040EA016068600FE0BE
:101B200020F480702860FFF7A9F8074605E000BFA1
:101B3000FFF7A4F8C01B0228B1D828684005F7D4E5
:101B40002078000729D560690028D5F8940012D0C4
:101B500040F00100C5F89400FFF790F8074604E054
:101B6000FFF78CF8C01B022899D8D5F8940080079D
:101B7000F6D512E02BE120F00100C5F89400FFF744
:101B80007DF8074605E000BFFFF778F8C01B022884
:101B900085D8D5F894008007F6D42078400766D51C
:101BA000A86D0027C00008D4A86D40F08050A8653B
:101BB000A86D012700F08050009053480168C905C6
:101BC00012D40168814641F480710160FFF756F834
:101BD000804605E0FFF752F8A0EB080002287DD808
:101BE000D9F80000C005F5D5A068012816D0052851
:101BF000D5F8900017D020F00100C5F89000D5F876
:101C0000900020F0040000BFC5F89000A06841F2E9
:101C10008839C0B1FFF732F880460FE0D5F8900060
:101C200040F00100F0E740F00400C5F89000F5E74F
:101C3000FFF724F8A0EB080149454FD8D5F89000EC
:101C40008007F5D50EE0FFF719F8804606E000BFE3
:101C5000FFF714F8A0EB080149453FD8D5F89000EC
:101C60008007F5D41FB1A86D20F08050A8652078BA
:101C7000800628D5606A0028D5F8980012D040F078
:101C80000100C5F89800FEF7F9FF074605E000BF20
:101C9000FEF7F4FFC01B022820D8D5F89800800773
:101CA000F6D510E020F00100C5F89800FEF7E6FF39
:101CB000074604E0FEF7E2FFC01B02280ED8D5F865
:101CC00098008007F6D4A06AA8B1022824D00C2E70
:101CD0007DD0286820F08070286000E0B3E028689C
:101CE000000103D4E86820F00300E860E8680749D1
:101CF0000840E8600CE09FE0001002405C630008D0
:101D0000800100207401002000700040FFFFEEFE03
:101D1000FEF7B4FF044699E0E868E26A00F00301C8
:101D2000914226D1216B00F07002090110399142D5
:101D30001FD1626B00F4FE41B1EB022F19D194F870
:101D4000382000F07841B1EBC26F12D1A18F00F4BE
:101D5000C00249084905A1F50011914209D194F842
:101D6000401000F0C06049084906A1F100718142AD
:101D70004BD00C2E6FD0286840016CD4286820F01E
:101D800080702860FEF77AFF064604E0FEF776FFD3
:101D9000801B022857D828688001F7D4F4E90B018A
:101DA0006FF00F0202EB01110843218A5204490827
:101DB00002EB4151A26841EA02210843217D4FF024
:101DC0007E42490802EB41610843217B00E042E08A
:101DD00040EAC160E968214A11400843E860286888
:101DE00040F080702860E86840F08070E860FEF79E
:101DF00045FF044605E000BFFEF740FF001B022838
:101E000021D828688001F7D523E02868800120D4F4
:101E1000286840F080702860E86840F08070E860D2
:101E2000FEF72CFF044604E0FEF728FF001B022803
:101E300009D828688001F7D50BE000BFFEF71EFF28
:101E4000001B022802D90320BDE8F883286880011E
:101E5000F4D40020F8E70120F6E700008C809D0113
:101E600010B5040011D0022084F85D0020680168DC
:101E700021F040010160204600F062F80020206659
:101E800084F85D0084F85C0010BD012010BD90F85E
:101E90005D0070472DE9F041040005D00025A562E2
:101EA00094F85D0018B107E00120BDE8F08184F8E6
:101EB0005C50204600F058F8022384F85D3020681A
:101EC000016821F040010160E0684FF4E066B04233
:101ED00001D9002101E04FF48051B0F5706F02D0BC
:101EE000B04200D0A562276B012227B9B04201D9C8
:101EF000236300E02263D4E901031843D4E90436E4
:101F000033431843238B03F400731843E3691843E6
:101F1000236A1843A36A184323681860636B606AD6
:101F2000A66918430427E36807EA164633431843B3
:101F3000084321684860256684F85D200020B4E7E6
:101F400000680749884209D10648016E21F4805192
:101F50000166E0214FF09040FEF7E6BC70470000BC
:101F6000003001400010024010B586B00446142134
:101F70006846FEF740F91349206888421FD112488D
:101F8000016E41F480510166016E01F480510591AA
:101F9000C16C41F00101C164C06C694600F00100F0
:101FA0000590E02000900220019000200290032084
:101FB0000390052004904FF09040FEF775FD06B0A9
:101FC00010BD000000300140001002402DE9F84F24
:101FD000044690F85C0000271D46164689460128F5
:101FE0000DD04FF0010B84F85CB0FEF747FE804641
:101FF00094F85D00BA46012804D002279FE0022031
:1020000000F0A3B8B9F1000F6FD0002E6DD00320FF
:1020100084F85D00C4F860A0C4F83890A687E6870D
:10202000C4F840A0A4F844A0A4F846A0C4F850A066
:10203000C4F84CA0A068B0F5004F04D12068016836
:1020400041F48041016020680168490603D40168B9
:1020500041F040010160E068B0F5E06F606823D9AD
:1020600008B1012E1CD1A06B21680088C86006E071
:1020700020688168890709D5A16B0988C160A06BB8
:10208000801CA063E08F401EE08709E0FEF7F6FDAC
:10209000A0EB0800A84202D3681C01D046E0ADB313
:1020A000E08F0028E4D136E008B1012E30D1E08F76
:1020B0000128A06B03D921680088C8600FE021685F
:1020C0000078087314E0E08722E0206881688907BF
:1020D00014D5E18F0129A16B08D90988C160A06BD3
:1020E000801CA063E08F801EEDE727E00978017374
:1020F000A06B401CA063E08F401EE4E7FEF7BEFD2E
:10210000A0EB0800A84202D3681C01D00EE06DB11C
:10211000E08F0028D9D142462946204600F02AFF08
:1021200008B120202066A06810B105E0032706E072
:102130002068C16880680090206E00B1012784F893
:102140005DB084F85CA038465AE718BCBDE8E08F63
:102150002DE9F05F044690F85C0000270A9E1D46BA
:1021600092468B464FF0010901280ED0012084F8D9
:102170005C00FEF783FD804694F85D0061680128ED
:102180000CD0B1F5827F07D102E0022000F011B936
:10219000A16809B9042801D0022700E1BBF1000FB2
:1021A00024D0BAF1000F21D005B394F85D000428C3
:1021B00002D0052084F85D0000202066C4F840A00D
:1021C000A4F84650A4F84450C4F838B0E587A58771
:1021D000E0642065E0684FF4E061884201D8012D99
:1021E00006D92068426822F4805205E00127D6E033
:1021F0002068426842F480524260206802685206B9
:1022000003D4026842F040020260E06888426068DD
:1022100045D908B1012D3AD1A06B21680088C8606A
:10222000A06B801CA063E08F401EE0872FE0206839
:10223000816889070FD5E18F69B1B9F1010F0AD122
:10224000A16B0988C160A06B801CA063E08F401E59
:10225000E0874FF0000920688168C9070FD0B4F803
:10226000461061B1C068216C0880206C801C20641D
:10227000B4F84600401EA4F846004FF00109FEF7EE
:10228000FDFCA0EB0800B04201D3701C75D1E08FBB
:102290000028CCD1B4F846000028C8D176E008B1B7
:1022A000012D6CD1E08F0128A06B08D9216800882E
:1022B000C860A06B801CA063E08F801E07E02168CF
:1022C00000780873A06B401CA063E08F401EE0877D
:1022D00055E02068816889071AD5E18FC1B1B9F14D
:1022E000010F15D1E18F0129A16B07D90988C160C0
:1022F000A06B801CA063E08F801E06E0097801734C
:10230000A06B401CA063E08F401EE0874FF00009E7
:1023100020688168C90728D0B4F8461029B3B4F8FA
:102320004610012914D9C068216C0880206C801CDB
:102330002064B4F84600801EA4F84600B4F84600B5
:10234000012810D82068416841F4805141600AE0BA
:10235000007B216C0870206C401C2064B4F846009F
:10236000401EA4F846004FF00109FEF787FCA0EBE1
:102370000800B04202D3701C01D018E0BEB1E08F5B
:102380000028A6D1B4F846000028A2D14246314622
:10239000204600F0EFFD10B101272020206601202B
:1023A00084F85D00002084F85C003846EEE60327E0
:1023B000F5E730BCBDE8C09F10B5401EB0F1807F8E
:1023C00001D3012010BD4FF0E02460610F216017A0
:1023D00002F06EF90020A06107202061002010BDEE
:1023E0007047704770470000F0B590F83C20012A14
:1023F00029D0012480F83C40022280F83D20036867
:102400005A689D68114EB34203D122F470074A689E
:102410003A4322F070070A683A435A600268B242AF
:1024200005D0B2F1804F02D0094B9A4204D189689D
:1024300025F080031943916080F83D40002180F829
:102440003C100846F0BD0220F0BD0000002C014009
:102450000040014010B5040003D094F83D0010B1D5
:1024600007E0012010BD002084F83C00204600F069
:102470000DF8022084F83D00211D206800F0A2FE26
:10248000012084F83D00002010BD000008B5006860
:10249000B0F1804F12D10A48816D41F00101816590
:1024A000806D002200F00100009011461C20FEF714
:1024B00059FCBDE808401C20FEF747BC08BD0000E1
:1024C00000100240022180F83D1001688A68084B24
:1024D0001A40062A06D0B2F5803F03D00A6842F0BF
:1024E00001020A60012180F83D10002070470000C1
:1024F0000700010070B5044690F83C00012817D091
:10250000012584F83C50022084F83D002268906840
:102510002E4B184020F47F4090600868502830D03F
:102520000DDC20284DD005DC98B310283BD148E0C5
:10253000022070BD302844D0402834D139E06028D2
:1025400028D0702806D0B0F5805F2CD0B0F5005FA1
:1025500029D10AE0CB68D1E90121206800F068FEAA
:102560002068816841F0770109E0CB68D1E9012159
:10257000206800F05DFE2068816841F48041816040
:1025800011E0CA684968206800F064FE50212068A4
:1025900007E016E0CA684968206800F06CFE602118
:1025A000206800F04FFE84F83D50002084F83C0085
:1025B00070BDCA684968206800F04CFE4021206860
:1025C000EFE7226801461046EBE7000088FFFEFFB8
:1025D000704770B50446006801694FF00005C943B3
:1025E000890715D4C168C943890711D4E91E01615F
:1025F00001202077206880698007204602D0FFF7FD
:10260000E7FF04E000F0A7F8204600F0A5F82577E2
:1026100020680169C943490717D4C168C9434907FC
:1026200013D46FF0040101610220207720688069D3
:1026300010F4407F204602D0FFF7CAFF04E000F00C
:102640008AF8204600F088F8257720680169C94398
:10265000090716D4C168C943090712D46FF00801ED
:102660000161042020772068C0698007204602D0DD
:10267000FFF7AEFF04E000F06EF8204600F06CF8C3
:10268000257720680169C943C90617D4C168C943C1
:10269000C90613D46FF0100101610820207720686B
:1026A000C06910F4407F204602D0FFF791FF04E09C
:1026B00000F051F8204600F04FF8257720680169B6
:1026C000C943C90708D1C168C943C90704D1891ED4
:1026D0000161204600F041F820680169C9430906FC
:1026E00009D4C168C943090605D46FF080010161AE
:1026F0002046FFF776FE20680169C943C90509D461
:10270000C168C943090605D46FF480710161204690
:10271000FFF766FE20680169C943490609D4C1680C
:10272000C943490605D46FF040010161204600F01D
:1027300015F820680169C94389060BD4C168C943EB
:10274000890607D46FF0200101612046BDE8704082
:10275000FFF748BE70BD7047704770477047FEE78F
:10276000F0B500230A24302537261F4611E000BFAC
:10277000B4EB107F02D905EB107C01E006EB107C76
:1027800001F813C001EB430C00015B1C8CF80170D5
:10279000DBB29342ECD3F0BDF1B55648FFF760FBD6
:1027A000544E2820F0613046FFF774FB002003F000
:1027B00015FD03F0D6FB504803F082FB4FF4FA708E
:1027C000FEF7A0F8012002F00BFE4C4C4FF4C87548
:1027D000401C22D04AA001F05BFF012220212046AC
:1027E000FEF746FA2846FEF78DF800222021204603
:1027F000FEF73EFA2846FEF785F83E48FFF730FB25
:102800000820F0613B48FFF745FB4148C078A8B37A
:10281000012837D0022838D03BE03EA001F038FF35
:10282000012220212046FEF723FA2846FEF76AF807
:10283000002220212046FEF71BFA2846FEF762F808
:10284000012220212046FEF713FA2846FEF75AF807
:10285000002220212046FEF70BFA2846FEF752F808
:10286000012220212046FEF703FA2846FEF74AF807
:10287000002220212046FEF7FBF9BEE7FFE72448AF
:10288000803004E02248683001E02148743002F0D2
:102890005BFC9DF8000048B1234B244A244925489D
:1028A00002F07CFF0121244802F087FF44F2340447
:1028B000204602F0EAFF204603F02CF8012002F047
:1028C00099FF9DF8000038B94FF4967002F0CCFFE4
:1028D00044F6206002F0E0FF002003F001F80C480D
:1028E0004FF01F3160304160C2210170BDE8F840F7
:1028F00002F03BBD001400204D55000800040048C4
:10290000696E697469616C697A65204F4B0A0000D1
:1029100080000020696E697469616C697A65204E77
:102920004F54206F6B0A0000A15F0008B1610008DE
:10293000C15F00083962000880D023042DE9F0410E
:1029400086B014216846FDF756FC3548C16C41F04D
:102950008001C164C16C01F080010591C16C41F03E
:102960000101C164C16C01F001010591C16C41F02C
:102970000201C164C06C4FF0904700F00200059066
:10298000002208213846FEF773F9DFF8988001220B
:1029900084214046FEF76CF9002260214046FEF794
:1029A00067F90420204D02268DE86100694638460B
:1029B000FEF77AF80820009011200024CDE90104E8
:1029C000694638460394FEF76FF8C4200127CDE925
:1029D0000007CDE9024669464046FEF765F810203B
:1029E000CDE90005694602944046FEF75DF82020D7
:1029F0000090CDE90174694640460394FEF754F80F
:102A0000002202210A20FEF7ADF90A20FEF79DF907
:102A1000002204210820FEF7A5F906B0BDE8F081E8
:102A20000010024000040048000011100E480D493B
:102A30004FF4E06201604FF4827141600021C0E90F
:102A400002124FF400720161C0E905122822C0E9A8
:102A5000072107224162C0E90A1201634163FFF7BF
:102A600019BA0000003001400014002010B588B0F1
:102A70000024134800940194029403940494059450
:102A80004FF080410694016040F21F31C0E901140B
:102A90000C49C0E903148461FFF7DCFC4FF480505B
:102AA000009069460648FFF725FD049404A90448F0
:102AB0000694FFF799FC0248FFF704FD08B010BD2B
:102AC0006414002000286BEE10B500220F49104856
:102AD00000F0C0FE08B1FDF714FF0E490C4801F0EC
:102AE000D7F808B1FDF70DFF0B49094800F0BAFC13
:102AF00008B1FDF706FF064801F020F9002803D0D1
:102B0000BDE81040FDF7FDBE10BD00000C00002028
:102B1000D4020020600200206C000020FEE7704715
:102B20002DE9F05F044640F68F7B48F60F7A40F2BD
:102B300002493AE1B0F8441011F00F0633D030F8F2
:102B4000267039047DD530F8261001EA0B0141F0DA
:102B5000800120F8261004EB461595F8340105F5A0
:102B6000947500286ED02978226832F8210048F642
:102B70008F73184048F2C003184322F821002978C7
:102B8000206830F821205204B0F8502002EB0003F6
:102B90007ED509EBC101595AC1F309015FEA010869
:102BA00077D02A89C5E0C9062BD4018801EA0A0139
:102BB00041F400410180206804F12805B0F850106C
:102BC0002A78014409EBC200085AC0F30900606486
:102BD000E16B0844E06300212046FEF743F994F8D6
:102BE00024000028A5D0A8690028A2D194F82400C8
:102BF000216840F08000A1F84C00002084F82400F7
:102C0000D3E0018804F594750A051FD5B0F850107B
:102C10000A18297840F2064000EBC100105A04F56A
:102C20000C71C0F30903EB61EA88206801F0FFFC36
:102C30002068018801EA0B0141F0800101802046F3
:102C400001E090E059E0FEF789FBAEE0090453D5BE
:102C5000018801EA0B0141F0800101802068B0F891
:102C600050102A78014440F2064000EBC200085A96
:102C700083059B0DEB6110D0696971B1EA8820680A
:102C800001F0D5FCE969686908440021686101E048
:102C900044E052E02046FEF7ECF82068B0F850100F
:102CA0000844296900F2064051B13E2910D84A086B
:102CB000C90700D0521C4FF6FF7101EA82210FE0D4
:102CC000018821F4F8410180018841F4004107E0C6
:102CD0004A09C90600D1521E4FF4004141EA82213F
:102CE0000180216808884BF68F72104080F44050B4
:102CF00048F280021043088057E02068B0F8501076
:102D00002B780A1840F2064101EBC301515AC1F376
:102D100009015FEA010810D0EA880AE040F20642A1
:102D200002EBC101595AC1F309015FEA010804D05D
:102D30006A894346696901F07AFCE96901EB080098
:102D4000E861696901EB08026A61AB6913B129693D
:102D5000414504D929782046FEF78BF803E029780D
:102D60002046FEF713F938061FD5216804EB4610FC
:102D700031F8262002EA0A0242F4004221F8262015
:102D80002168B1F8502010F8283F114409EBC30224
:102D9000895AC1F30901C16142690A44426101785B
:102DA0008369204653B1FEF73DF92068B0F844101E
:102DB00009043FF5BFAE002000F003B8FEF752F85B
:102DC000F3E730BCBDE8C09F704700002DE9F0413B
:102DD000444C05468846E0680026810728680DD0E7
:102DE000E16801F00301814216D1A8B1E068696889
:102DF000C0F30210401C88420ED120E0012804D00C
:102E0000022805D0032807D108E02168890701E0DE
:102E100021684905002907DB01265FE02168890355
:102E200002D421684903F5E7E1686A686FF00F038F
:102E300021F0730103EB021211430143E1602068AA
:102E400020F080602060FDF719FF074605E000BF15
:102E5000FDF714FFC01B022837D820680001F7D403
:102E6000B8F1000F18D0B8F1010F1DD0287D4FF038
:102E70007E41400801EB4060A96840EA01202169D9
:102E8000194A114008432061206840F080602060AA
:102E9000FDF7F4FE07461AE0A868297B000240EA25
:102EA000C1602169114AECE7288A1149400801EB09
:102EB0004050A96840EA012021690E4AE1E700BFBD
:102EC000FDF7DCFEC01B022801D9032606E02068BE
:102ED0000001F5D52069A969084320613046BDE8A5
:102EE000F081000000100240FF80FFF9FF80FF0723
:102EF0000000E0FFFF809FFFF8B51C4D0646002450
:102F0000A86DC00002D5FEF793FA0DE0A86D40F061
:102F10008050A865A86D00F080500090FEF788FAF8
:102F2000A96D21F08051A965B0F5007F04D0802EF5
:102F300007D94FF003040AE0802E08D9A02E01D84B
:102F400004E001D1022402E0702E00D101240848DF
:102F5000016821F0070121430160006800F00700CB
:102F6000A04201D00120F8BD0020F8BD00100240B1
:102F700000200240F8B515460E460B460092044666
:102F800000224FF4C05100F019F888B933460022EE
:102F900080212046009500F05CF848B933460022B5
:102FA0004FF4C0612046009500F008F8002804D0D6
:102FB000206E40F0200020660320F8BD2DE9F04788
:102FC0001D4617460E4604464FF4C068DDF82090B3
:102FD0000CE0464501D107B9007B681C06D0FDF71F
:102FE0004DFEA0EB0900A84208D23DB120688168DF
:102FF0003140B942EDD10020BDE8F087206841683A
:1030000021F0E00141606068B0F5827F0BD1A068DB
:10301000B0F5004F02D0B0F5806F04D12068016890
:1030200021F040010160A06AB0F5005F09D120687D
:10303000016821F4005101602068016841F40051E9
:103040000160012084F85D00002084F85C0003200A
:10305000D2E72DE9F0411D4617460E460446DDF83D
:10306000188008E0681C06D0FDF708FEA0EB0800F9
:10307000A8420BD255B12068806836EA000030D0F3
:103080000020B842EED10020BDE8F0812068416800
:1030900021F0E00141606068B0F5827F0BD1A0684B
:1030A000B0F5004F02D0B0F5806F04D12068016800
:1030B00021F040010160A06AB0F5005F09D12068ED
:1030C000016821F4005101602068016841F4005159
:1030D0000160012084F85D00002084F85C0003207A
:1030E000D2E70120CDE77047FDF70CBCFDF7CCBD62
:1030F000F0B5AFB0442118A8FDF77DF8142129A838
:10310000FDF779F860216846FDF775F80125280478
:10311000CDE91850282002240326CDE92450CDE91A
:103120002246072726970420CDE9274018A8FEF756
:10313000E1FB0F20CDE9290600202B902C902D904B
:10314000042129A8FEF7F4FA20030090400312900E
:103150000C20CDE902500196E004CDE90640CDE90E
:1031600004746846FEF76CF92002FEF725F92FB0CB
:10317000F0BD00000D48016841F4700101600C4889
:10318000016841F001010160002181600268094B82
:103190001A4002608214C260026822F48022026037
:1031A00081610249C00380390860704788ED00E002
:1031B00000100240FFFFF6EA0148FFF70ABA0000DC
:1031C0006414002070B50268164B4FF08046984298
:1031D00001D0B04203D122F070044A682243124C5D
:1031E000124D984205D0B04203D0A04201D0A8426F
:1031F00003D122F44076CA6832434E6922F080023D
:10320000324302608A68C2620A688262984203D0CE
:10321000A04201D0A84201D10969016301214161A5
:1032200070BD0000002C01400040014000440140FE
:1032300010B5846842EA032224F47F440A432243FF
:10324000826010BD826822F070020A4342F00701DA
:103250008160704710B5036A046A24F001040462B7
:10326000846924F0F00444EA021423F00A020A43B9
:103270008461026210BD10B5036A23F0100303627B
:103280008369046A23F4704343EA023224F0A00302
:1032900043EA01118261016210BD2DE9F041D0F8CD
:1032A000C032D0F8B822CAB101EB810400EB84042B
:1032B0000025E6693EB103EB41139B6BB6FBF3F7C8
:1032C00003FB176323B1C2F814520020BDE8F0815C
:1032D00000231A46E56100F0B7FCF6E70220F5E7A7
:1032E00070B50546D0F8B84200F08DFBC4F80C026A
:1032F000D5F8B80248B1D5F8BC12D4F80402CA68AF
:1033000004F503719047002070BD022070BD70B5B8
:1033100004460026812100F0C2FA00250121204642
:10332000E56200F0BCFA82212046C4F86C5100F03E
:10333000B6FA2564D4F8B80248B1D4F8BC0204F552
:103340002E7440688047206800F055FE25603046A6
:1033500070BD10B5D0E9AE4159B194F80002FF2814
:1033600007D08B6894F8012221469847FF2084F803
:103370000002002010BD00000A21018000487047B3
:10338000880100204321018000487047D8010020B7
:1033900043210180004870479401002043210180AF
:1033A000004870471C0200202DE9F0410446002629
:1033B000007C4FF40077012590B340230222812145
:1033C000204600F077FB4023E562022201212046DF
:1033D00000F070FB0823032282212046C4F86C51C0
:1033E00000F068FB4FF40770256400F005FEC4F898
:1033F000B802F8B10546D4F8BC0200688047002046
:10340000C5F81402C5F81802207CD5F8042298B13A
:1034100040230121204600F060FB3046BDE8F081EA
:10342000FFE73B4602228121204600F043FB3B465A
:10343000E562CAE70126F0E73B46EAE710B5D0F8B7
:10344000B81269B1027C002AD1F8042205D04023C9
:10345000012100F042FB002010BD4FF40073F7E79C
:10346000022010BD02460220002902D00020C2F82E
:10347000BC127047D0F8B802C0F8041200207047A0
:10348000D0F8B802C0F81022C0F808120020704727
:103490002DE9FC410546D0F8B87200208DF80000F7
:1034A000ADF80400064608780C4610F0600121D003
:1034B00020293BD1E288AAB10006607807D5D5F86B
:1034C000BC128B6839469847E288394626E087F86F
:1034D0000002A07987F80102E2883946284600F008
:1034E0006AF828E0D5F8BC12607800228B68214683
:1034F000984720E0607820B10A2809D00B2815D120
:1035000010E095F89C02032810D1022201A905E0E1
:1035100095F89C02032809D101226946284600F04B
:1035200064F808E095F89C02032804D02146284658
:1035300000F036F802263046BDE8FC8110B5D0F820
:10354000B812A1B1D1F814220AB1012010BD012294
:10355000C1F81422D1F810220263B1F8102293B2FC
:10356000D1F80822812100F06FFB002010BD02205D
:1035700010BD10B5D0F8B42252689047002010BD9D
:10358000134610B50A46002100F0A7FA002010BD2E
:10359000134610B50A46002100F056FB002010BD6E
:1035A00010B50446802100F026FB2046BDE81040FF
:1035B000002100F020BB10B50323C0F85C21C0F847
:1035C0009432C0F8602113460A46002100F085FAC3
:1035D000002010BD10B505210023C0F894121A4632
:1035E000194600F07AFA002010BD10B50223C2611E
:1035F000C0F89432026213460A46002100F024FB10
:10360000002010BD10B504210023C0F894121A4602
:10361000194600F019FB002010BD000010B50A4645
:10362000024903A000F0F2F8004810BD2C0A002067
:1036300043444320436F6E66696700001220088090
:10364000004870473000002010B50A46024903A028
:1036500000F0DCF8004810BD2C0A00204344432051
:10366000496E74657266616365000000042008801D
:10367000004870472C00002010B50A46024903A0FC
:1036800000F0C4F8004810BD2C0A002053544D69C6
:1036900063726F656C656374726F6E69637300004B
:1036A00010B50A46024903A000F0B0F8004810BD6A
:1036B0002C0A002053544D333220566972747561C0
:1036C0006C20436F6D506F727400000010B51A20AB
:1036D00008800A480168001D0468001D0068081879
:1036E00009D008220649FFF73BF8054904221031AA
:1036F0002046FFF735F80248801E10BD9075FF1F69
:10370000520000200C200880004870474400002030
:10371000F8B504460020ADF8000048880D46010ABF
:10372000062947D006DC01290FD0022912D003292F
:103730004BD11DE0072946D00F2946D1D4F8B0025D
:10374000C26920E0694690473BE0D4F8B012207C83
:103750000A68F7E7207C02260028D4F8B40205D0D6
:10376000C16A68468847014646703BE0816AF8E7CF
:10377000C0B2062829D2DFE800F003090D1115199F
:10378000D4F8B002426802B3207CDBE7D4F8B00280
:103790008268F8E7D4F8B002C268F4E7D4F8B0025F
:1037A0000269F0E7D4F8B0024269ECE7D4F8B0025D
:1037B0008269E8E7207C40B9D4F8B402416B6846DE
:1037C000884701460EE0207C20B129462046FFF7BD
:1037D000E7FEF8BDD4F8B402016B6846884701469D
:1037E00007204870BDF8000048B1EA8852B1824213
:1037F00000D90246ADF800202046FFF7F6FEE88823
:103800000028E6D12046FFF7FDFEF8BD70B5002385
:1038100000281ED00446002502E06D1CEDB2641C99
:103820002678002EF9D1022404EB45041480127886
:10383000CA545B1C0322CA5400245B1C06E0CA5411
:103840005B1CDAB28C54521CD3B2401C0278002AA2
:10385000F5D170BD10B580B1D0F8B43213B10023EA
:10386000C0F8B43209B1C0F8B012012180F89C123E
:10387000027000F0CDF8002010BD022010BD10B580
:103880000024D0F8C002FDF720FB30B1012801D0A0
:10389000022801D0022400E00124204610BD10B50A
:1038A0000024D0F8C002FDF7ECFA30B1012801D0B5
:1038B000022801D0022400E00124204610BD2DE999
:1038C000F0411746044651B1D4F8B40242691AB126
:1038D00094F89C02032851D00220BDE8F081D4F86E
:1038E0009432002504F11400022B03D0042B3AD0AB
:1038F000C3B33CE0D0E903639E4207D9F11AC1602B
:103900008AB239462046FFF743FE12E08068B0FBDA
:10391000F3F103FB110199B9984211D3D4F898122D
:1039200088420DD2002211462046FFF731FEC4F82E
:10393000985200231A461946204600F0CEF816E0A9
:10394000D4F8B402C16829B194F89C02032801D1CB
:10395000204688478021204600F04DF92046FFF799
:1039600039FE04E0FFE78021204600F044F994F896
:10397000A002012804D184F8A05201E0204690471B
:103980000020AAE770B51546044649B1D4F8B40240
:1039900082691AB194F89C02032830D0022070BDCD
:1039A000D4F8941204F5AA70032902D005291ED078
:1039B00027E0D0E903218A420BD9531AC360084695
:1039C000834200D303469AB229462046FFF7D8FD2A
:1039D00017E0D4F8B402016929B194F89C020328D5
:1039E00001D1204688472046FFF70CFE09E0002061
:1039F0000146C4F89402204600F0FDF801E020469C
:103A00009047002070BDD0F8C002FDF78ABA0000D0
:103A100010B50446FDF704FD1D491E48C1F870426B
:103A2000C4F8C0120860082048600220886008615D
:103A3000002048618861C86108620846FDF7C0FB44
:103A400008B1FCF75EFF0022D4F8C002182311462B
:103A500004F53074FDF7ECF958230022802120682A
:103A6000FDF7E6F9C023002281212068FDF7E0F987
:103A70004FF48873002201212068FDF7D9F94FF433
:103A80008073002282212068FDF7D2F9002010BD4A
:103A9000B8070020006800400A06D0F8C00201F014
:103AA0007F0100EB411002D590F82A00704790F892
:103AB0002A01704770B51D4613460024D0F8C00295
:103AC0002A46FDF735FA30B1012801D0022801D08D
:103AD000022400E00124204670BD10B50024D0F877
:103AE000C002FDF753FA30B1012801D0022801D0FD
:103AF000022400E00124204610BD70B500220446D7
:103B000040231146FFF7D6FF40260125C4F8646123
:103B10003346002280212046C4F85851FFF7CAFFDF
:103B20006662A56184F89C520020C4F8940260602B
:103B3000C4F8A402D4F8B80228B1D4F8B402002121
:103B4000426820469047002070BD90F89C120429DE
:103B500003D190F89D1280F89C120020704710B598
:103B600090F89C12032904D1D0F8B412C96901B1AC
:103B70008847002010BD01740020704710B5002454
:103B8000D0F8C002FDF7D6FB30B1012801D00228E1
:103B900001D0022400E00124204610BD70B5044687
:103BA00000F52A70054600F05FF80120C4F8940281
:103BB000B4F8AE02C4F8980294F8A80210F01F01FD
:103BC0000AD001290DD0022910D000F08001204632
:103BD00000F011F8002070BD2946204600F0B3F82F
:103BE000F8E72946204600F0DFF9F3E729462046AA
:103BF00000F032F9EEE710B50024D0F8C002FDF76E
:103C0000DCF930B1012801D0022801D0022400E003
:103C10000124204610BD10B50024D0F8C002FDF7E5
:103C2000A4FB30B1012801D0022801D0022400E019
:103C30000124204610BD90F89C1280F89D120421AA
:103C400080F89C120020704710B50024D0F8C00204
:103C5000FDF7E8F930B1012801D0022801D0022493
:103C600000E00124204610BD0A7802704A784270B4
:103C70008A78CB7802EB032242800A794B7902EBF7
:103C8000032282808A79C97902EB0121C1807047C1
:103C90000246002011B1C2F8B412704702207047EA
:103CA00010B5D0F8B42202241AB11268904700B9B6
:103CB0000024204610BD000070B50E461E4D8978C8
:103CC00004462970012931D894F89C0202280BD0AF
:103CD00003280FD031462046FFF762FC29782046A2
:103CE000BDE87040FFF745BCD9B10320616084F89E
:103CF0009C0209E071B16068884212D0C1B22046CE
:103D0000FFF737FC297861602046FFF7C9FF0228DA
:103D10000CD006E0022084F89C0220466160FFF788
:103D200028FC2046BDE87040FFF76CBC31462046B9
:103D3000BDE87040FFF734BC8401002010B5FFF7E8
:103D40006AFF002010BD2DE9F0410A78002612F02C
:103D5000600208D0202A01D0402A70D1D0F8B422C5
:103D6000926890476DE04B78002201250A2B66D2BD
:103D7000DFE803F0405D6557650805652C29FFF70E
:103D8000C7FC5EE004468888D8B9C888C8B94888A6
:103D9000802816D200F07F0794F89C02032810D0E8
:103DA00084F89E7239462046FFF7E8FE2046FFF76A
:103DB00029FC1FB1022084F89C0242E084F89C5246
:103DC0003FE020463BE0FFF777FF3AE0CB88012B4E
:103DD00035D190F89C32012B04D0022B02D0032B5A
:103DE0002DD104E08260012200F1080116E00122D9
:103DF000011D13E090F89C22012A03D0022A01D071
:103E0000032A1CD1CA88022A19D1C560D0F8A4128D
:103E100009B10321C160022200F10C01FFF7E5FBAB
:103E20000FE0498801290CD1C0F8A45211E090F8A4
:103E30009C32012B08D0022B06D0032B04D0FFF7B5
:103E4000AFFB3046BDE8F08149880129F9D1C0F8BF
:103E5000A422FFF7D7FBF4E72DE9F0410A46044618
:103E600010780027097910F060030AD0202B01D0C8
:103E7000402B50D1D4F8B4021146836820469847AD
:103E80008FE0C0F34110012806D05078D0B301284C
:103E90002AD003283FD107E0D4F8B4021146836842
:103EA0002046BDE8F041184794F89C02022802D051
:103EB000032872D10AE071B380296ED02046FFF743
:103EC0009AFE80212046FFF796FE6AE0508838B9B6
:103ED00031B1802904D0D08810B92046FFF78BFE7D
:103EE0002046FFF78FFB5CE094F89C020228E2D0AA
:103EF000032852D1508898BB4806F1D02046FFF7DE
:103F0000BEFCEDE7FFE794F89C020026022803D0F0
:103F1000032842D112E040E009B180293DD10806D2
:103F200001F07F0000EB800004EB800101D514312B
:103F300001E001F5AA7102220E602AE0080601F0F4
:103F40000F0000EB800004EB80000AD5806920B3ED
:103F500001F07F0000EB800004EB800514350BE0DE
:103F60001FE0D0F85801C0B101F07F0000EB8000E5
:103F700004EB800505F5AA7541B1802906D02046DD
:103F8000FFF78AFD10B10120286000E02E600222B8
:103F900029462046FFF729FB03E011462046FFF79C
:103FA000FFFA3846BDE8F08170B5054608780C4642
:103FB00010F0600003D0202801D0402816D195F8D9
:103FC0009C02012803D0022801D003280ED12079B9
:103FD00001280BD8D5F8B402826828469047E188BA
:103FE000014306D12846FFF70DFB02E02846FFF704
:103FF000D7FA002070BD7047004870479805002030
:104000002DE9F0470C784FF0000C30F8243048F6DA
:104010008F121340CA78002A7DD0012A7CD0022A50
:1040200003D0032A79D04FF0010C48F280021343E9
:1040300020F824300D7830F8254048F68F731C4066
:104040002C43144320F825400F7B48F6BF744BF6F1
:104050008F7948F2C0054CF28006EFB391F80080EA
:10406000C24630F8287048F280181F4047EA080717
:1040700020F82A70B0F8507091F80080074407EBE0
:10408000C807B1F8088028F00108A7F80084B0F844
:10409000507091F80080074407EBC807B1F80A8018
:1040A00028F00108A7F804844F7891F80080002FC9
:1040B00030F828704FEA47477ED0002F05DA30F8F5
:1040C00028701F40374320F828700F7830F8278079
:1040D0005FEA486809D500E033E030F8278008EA55
:1040E000030848EA050820F827800F7830F82750A1
:1040F0001D40354320F82750CB780D78012B30F840
:10410000253003EA040301D083F02003134320F891
:1041100025300B7802E00BE010E00CE030F82310C3
:1041200001EA0901114320F823106046BDE8F08739
:1041300043F4007379E743F4C06376E743F48063A4
:1041400073E74F7827B3B0F850600F78064406EB5A
:10415000C706CF8827F00107A6F800740F7830F85B
:104160002760760605D530F827601E402E4320F8DC
:104170002760CB78012B06D00B7830F82310214034
:1041800081F02001CEE70B7830F823102140C9E7F9
:10419000B0F850400D78044404EBC504CD8825F0F8
:1041A0000105A4F80454B0F850400D78044404EB21
:1041B000C50404F2064400E030E00D6955B13E2D1F
:1041C00010D86F08ED0700D07F1C4FF6FF7505EA89
:1041D00087250FE0258825F4F8452580258845F4B6
:1041E000004507E06F09ED0600D17F1E4FF4004542
:1041F00045EA872525800D7830F82540640405D5EB
:1042000030F825401C40344320F825400B7830F826
:10421000231001EA090181F4405183E7002F05DAF8
:1042200030F828701F40374320F828700E7830F897
:1042300026707F0605D530F826701F402F4320F8E2
:1042400026700F7830F827601E402E4320F8276034
:104250000D7830F8253003EA090383F44053134303
:1042600020F825308FE7002070472DE9F04391F8C2
:104270000C804F780A7848F6BF7C4BF68F7948F26D
:10428000800348F2C0054CF2800648F68F74B8F1FE
:10429000000F28D0002F30F822704FEA474748D04F
:1042A000002F05DA30F822702740374320F82270BB
:1042B0000A7830F822707F0605D530F82270274042
:1042C0002F4320F822700D7830F825202240324309
:1042D00020F825200C7830F8242002EA0C021A433A
:1042E00020F824201AE07FB130F82260760605D548
:1042F00030F8226026402E4320F822600A7830F8F9
:10430000221001EA0C010EE030F822506D0405D5B0
:1043100030F822502540354320F822500A7830F8F2
:10432000221001EA0901194320F822100020BDE8FB
:10433000F083002F05DA30F822702740374320F849
:1043400022700A7830F82260760605D530F82260AF
:1043500026402E4320F822600E7830F82620224096
:104360002A4320F826200C7830F8242002EA09029B
:104370001A4320F82420C1E730F8581F41F40041C7
:1043800001800020704730F8581FC1F30E010180F2
:104390000020704700B50121A0F840100021A0F8CE
:1043A0004010A0F84410A0F8501000F02FF90020A1
:1043B00000BD30F8401F4BF6807291430180002011
:1043C00070470020704730B50A7BB2BB4A7848F688
:1043D0008F7548F28004C2B10B7830F82320520662
:1043E00007D530F823202A4048F2C0052A4320F898
:1043F0002320CA78012A20D00A7830F8221048F603
:10440000BF73194081F0200114E00A7830F822309F
:104410005B0407D530F822302B404CF280052B434B
:1044200020F822300A7830F822104BF68F731940AA
:1044300081F44051214320F82210002030BD10B5F6
:104440004A780978002A48F2800330F8212005D004
:1044500048F6BF74224082F0100204E04BF68F74DD
:10446000224082F480521A4320F82120002010BDFF
:10447000F0B50E46054691F801C00022097B34696B
:10448000B06948F28007BCF1010F04D0A0424FD9B7
:10449000001BB0614EE0A04202D9001BB06101E0F8
:1044A0000446B26169B1307835F820104906B5F894
:1044B0005010294401EBC00012D5A0F806447289BF
:1044C00011E0A3B2F2882846716900F0CDF8B5F882
:1044D00050003178284400EBC100A0F802441EE0EF
:1044E000A0F802443289A3B22846716900F0BCF8F2
:1044F000707848F68F7110B1012807D00FE032783C
:1045000035F82200084048F2C00105E0327835F85D
:10451000220008404CF28001084325F8220031783F
:1045200035F8210048F6BF72104080F0300068E096
:104530000446B2614FF6FF724FF4004381B3BCF101
:10454000000F15D027E0018821F4F841018001888F
:1045500041F400410AE03E2C3ED86108E30700D058
:10456000491C02EA812101E043EA8121018040E007
:10457000B5F850003178284400EBC10000F2024049
:104580007CB13E2C15D861085FEAC47C00D0491C80
:1045900002EA81210180707810B1012821D028E041
:1045A0000FE0018821F4F8410180018841F40041C5
:1045B000F0E761095FEAC46C00D1491E43EA81213A
:1045C000E8E7B5F850003178284400EBC10000F26C
:1045D0000640002CBFD1B6E76109E206C4D1491EEE
:1045E000C2E7B5F850104819317800EBC100A0F8C7
:1045F0000644317835F821004BF68F72104080F474
:104600004050384325F821000020F0BD30F8401F0D
:104610004BF6807211430180002070470148FCF77F
:1046200016BD0000B8070020B0F84400704710B570
:1046300010445C0800F5806008D030F8022B01F8C7
:10464000012B120A01F8012B641EF6D1DA0701D002
:104650000088087010BD0020704711B98021A0F8B3
:104660004C1000207047000010B55B1C10445B0824
:1046700000F580600AD000BF11F8012B11F8014B42
:1046800042EA042220F8022B5B1EF5D110BDFEE7A2
:104690000FB4054B10B503A9044A029800F0AAF91B
:1046A00010BC5DF814FB0000ED5A000898020020D1
:1046B0000907090E002804DB00F1E02080F800144F
:1046C000704700F00F0000F1E02080F8141D7047E3
:1046D00002E008C8121F08C1002AFAD170477047CB
:1046E000002001E001C1121F002AFBD1704710B564
:1046F000002202212C2001F09BF90222BDE810408B
:1047000011462C2001F094B910B504466D2240F6F4
:1047100006012E2001F08CF941F6060114B140F299
:10472000076201E041F20762BDE810402E2001F06F
:1047300063B910B5002000F007F800220421BDE89D
:104740001040362001F058B938B504466B460222B5
:104750000021362000F0BCFF0F2C2DD2DFE804F042
:104760001008162C2C2C2C1E3A2C2C454A4F560087
:1047700000208DF800009DF8010000F0FE0019E017
:104780009DF8000000F0FC00401C04E09DF80000D3
:1047900000F0FC00801C8DF800000DE09DF800008A
:1047A00000F0B30040F048008DF800009DF80100D3
:1047B00040F080008DF801006B4601220021362078
:1047C00001F03EF90122114636200DF1010301F0FE
:1047D00037F938BD9DF8000000F0B3008DF80000F7
:1047E0009DF8010000F07F00E4E79DF8010040F033
:1047F0000200DFE79DF8010000F0FD00DAE79DF818
:10480000000000F0CF0040F02000C4E701208DF848
:1048100000000320CEE710B50E20FFF795FF4FF400
:10482000004206212D2001F0E7F8012000F07CFC79
:10483000BDE810400120FFF787BF10B502460421F4
:104840002D2001F0D9F8032206212D2001F0F0F8E7
:10485000002206212D2001F0EBF80A21BDE81040CE
:104860002D2000F016BF00002DE9FF5F82B000216F
:10487000DDE90430020DDDF840B0034318D044F602
:104880001050A2F2FF3242431514119801281FD094
:10489000A5EB0B00401C5FEA000A4FF000064E4FEC
:1048A000DFF83891B046504615D5CAF1000413E040
:1048B000119801244AA3012801D16FEA0B01029843
:1048C000119AC0E90031C0E9024206B000F08EB88A
:1048D000CBF10000DFE704460021404A491842EBD3
:1048E0000450CDE9001012E0E00707D032463B4605
:1048F00040464946FBF746FD8046894632463B46E0
:1049000010461946FBF73EFD06460F466410002C84
:10491000EAD1DDE90401DDE90023BAF1000F06DA8E
:10492000FBF730FD42464B46FBF72CFD05E0FBF75D
:104930009EFD42464B46FBF79AFD04460E4600227A
:10494000284BFBF739FF03D84FF0FF30014607E053
:104950000022254B20463146FBF765FCFBF714FF90
:10496000102409E0002C0ADB0A220023FBF74AFE90
:10497000039B30321A55641E50EA0102F2D1641CC6
:10498000039AC4F111031444119A012A03D001229D
:1049900008430DD10AE0084304D000204FF0110B6A
:1049A000119072E7A3EB0B056D1E0DE05B4504DD76
:1049B0004FF0000205F1010504E003DA4FF00002B8
:1049C000A5F10105002AECD002981199C0E9023145
:1049D000C0E9004579E70000000014400000F03F06
:1049E000300000000000F0430000E03F30BCBDE8B4
:1049F000C09F00002DE9FF4F95B09B4689460646B3
:104A000000250FE2252877D100242746F84A012106
:104A1000059400E0044316F8013F203B01FA03F03F
:104A20001042F7D130782A2811D06FF02F03307858
:104A3000A0F13002092A16D8059A44F0020402EBCC
:104A4000820203EB42021044761C0590EFE759F80E
:104A5000042B0592002A03DA504244F400540590D6
:104A600044F00204761C30782E2816D116F8010F77
:104A700044F004042A280DD06FF02F023078A0F102
:104A80003003092B09D807EB870302EB4303C71850
:104A9000761CF3E759F8047B761C30786C280FD02D
:104AA00006DC4C2817D068280DD06A2814D104E001
:104AB000742810D07A280FD10DE044F400140AE0D5
:104AC00044F4801401E044F440147278824202D12C
:104AD00004F58014761C761C307866280BD013DC25
:104AE000582877D009DC002875D04528F6D046280C
:104AF000F4D047281AD19DE118E0632835D0642806
:104B000079D0652812D195E1702873D008DC672828
:104B1000F1D069286FD06E280DD06F2806D1B5E08E
:104B200073282CD0752875D0782874D05A461799D8
:104B300090476D1C75E1C4F30250022809D0032888
:104B40000DD0D9F8001004280DD00D6009F104092A
:104B500067E1D9F80010EA17C1E90052F6E7D9F881
:104B600000100D80F2E70D70F0E719F8041B8DF8C6
:104B7000001000208DF80100EA46012003E059F8FA
:104B800004AB4FF0FF3061074FF0000102D40DE09D
:104B900008F101018846B9420FDA8045F8DB1AF8BE
:104BA00008100029F4D108E008F10101884681428B
:104BB000FADB1AF808100029F6D105985B46A0EB3D
:104BC000080721463846179A00F097FA284400EB68
:104BD000080507E04DE029E10DE01AF8010B5A46FF
:104BE00017999047B8F10108F7D25B46214638463D
:104BF000179A13E142E00A220092C4F302524FF0E6
:104C0000000A022A08D059F804CB032A4FEAEC71B3
:104C10000AD00DE029E02AE009F1070121F007029E
:104C2000F2E802C1914609E00FFA8CFC4FEAEC7100
:104C3000042A03D14FFA8CFC4FEAEC71002907DA01
:104C40000A460021DCF1000C61EB02012D2202E09A
:104C5000220504D52B228DF80420012203E0E2076F
:104C600001D02022F7E7904659E00A2102E0102205
:104C70000DE010214FF0000A00910BE010224FF0E0
:104C8000000A44F004040827009203E008224FF0D1
:104C9000000A0092C4F30252022A05D059F804CB4C
:104CA0000021032A08D009E009F1070121F00702D9
:104CB000F2E802C1914605E01FFA8CFC042A01D1FA
:104CC0000CF0FF0C4FF00008220728D5702806D002
:104CD000009B83F0100353EA0A0305D00EE0402244
:104CE0008DF80420012208E05CEA010206D030229F
:104CF0008DF804208DF8050002229046009B83F079
:104D0000080353EA0A030AD15CEA010201D16207EF
:104D100005D530228DF804204FF001087F1E582859
:104D200004D034A003900EA802900DE036A0F9E75D
:104D300053466046009AFBF765FC84460398825C04
:104D40000298401E029002705CEA0100F0D10298C5
:104D500006A9081A00F1200A600702D524F480345D
:104D600000E00127574502DDA7EB0A0000E0002024
:104D700000EB0A01009005984144401A0590E003B9
:104D800006D45B462146179A059800F0B6F905440B
:104D9000002706E001A85A46C05D179990476D1C90
:104DA0007F1C4745F6DBE0030CD55B462146179A8E
:104DB000059800F0A2F9054404E030205A461799FE
:104DC00090476D1C0099481E00900029F5DC08E012
:104DD000029802995A460078491C02911799904707
:104DE0006D1CBAF10001AAF1010AF1DC65E10000D5
:104DF00009280100303132333435363738396162B1
:104E00006364656600000000303132333435363774
:104E100038394142434445460000000000F05BF948
:104E20000544761C307800287FF4ECAD19B0284694
:104E300000F04EB9620700D4062709F1070222F0FC
:104E4000070CFCE80223E14603F000485FEA080C87
:104E500002D00FF2702C0DE05FEA045C02D50FF275
:104E6000682C07E05FEAC47C02D00FF2602C01E0FE
:104E7000AFF2700C4FF0FF3823F00043CDF850C074
:104E800065280CD006DC452809D046281DD04728C7
:104E90003DD13DE0662818D067287ED138E000215A
:104EA000112F01DB112000E0781CCDE9000106A9DB
:104EB0000EA8FFF7D9FCDDE90F010E9A039100213E
:104EC000009207F1010A04914DE04FF00040009775
:104ED000CDE9011006A90EA8FFF7C6FCDDE90F0217
:104EE00003920E9B11990022DDF80CA0009304920E
:104EF00011B9791C00EB010AB7EB0A0004D4C0F128
:104F0000FF3007F1010A0490AAEB0700019044E08A
:104F1000012F00DA01270021112F01DD112000E00F
:104F20003846CDE9000106A90EA8FFF79DFCDDE992
:104F30000F010E9A0391002104910092BA462107B5
:104F40000CD40399514500DA8A46BAF1010F05DD08
:104F5000009AAAF10101515C302908D0B84202DA66
:104F600010F1040F06DA0121CDE9011015E0AAF1D4
:104F70000101E9E7002805DC049901440491AAEB4A
:104F8000000102E0411C514500DD8A460499401AA7
:104F9000401C01904FF000400290200704D401987B
:104FA000504501DBCDF8048000208DF84F000298B9
:104FB0000DF14F07B0F1004F25D02B200E90029835
:104FC0004FF0020800280CDA404202902D200E908B
:104FD00007E00A210298FBF7FFFA3031029007F848
:104FE000011DB8F10001A8F10108F2DC02980028C7
:104FF000EFD1791E0E980870307800F0200040F054
:10500000450007F8020D12A8C01B00F1070814980C
:10501000007800B1012000EB0A01019801EBE0717A
:1050200005984144401A401E0590E00306D45B46B3
:105030002146179A059800F060F805441498007806
:1050400018B15A46179990476D1CE00324D55B466A
:105050002146179A059800F050F805441CE0049882
:10506000002807DBDDE90301884203DD0098405C8E
:10507000179901E0179930205A469047049805F196
:105080000105401C04900198401E019004D12E207F
:105090005A46179990476D1CBAF10001AAF1010A0E
:1050A000DDDC05E017F8010B5A46179990476D1C97
:1050B000B8F10001A8F10108F4DC5B462146179A1B
:1050C0000598ABE62D0000002B000000200000003A
:1050D00030BCBDE8C08F2DE9F041044600251E46D6
:1050E0001746880404D405E039462020B0476D1CDB
:1050F000641EF9D52846BDE8F0812DE9F04104464B
:1051000000251E469046C80301D5302700E0202721
:10511000880404D505E041463846B0476D1C641E3E
:10512000F9D52846BDE8F081FDF7DEBF002801D0A3
:1051300000F0BBBE704710B500F0BEFE040001D009
:1051400000F0A8FE204610BD2DE9F05F044605786A
:10515000407977494FF00009C84631F810706078FF
:10516000401EC6B2042D76D0072D74D00020714A9F
:105170008246E3791068002B01696ED021F480012A
:105180000161217A81720169934621F44032026102
:10519000217A4FF4403303EA01410A4302610021BE
:1051A000042000F036FC3A4642F604012E2000F0BE
:1051B00023FC3046FFF7A8FA5F4F6049785D51F84D
:1051C000202007212B2000F024FC785D5C490A5C3C
:1051D0000B212B2000F02CFC5A49282011F80A2022
:1051E0000B2100F025FC785D574951F820200C2157
:1051F000282000F00EFCE079544901EB8000A179F1
:1052000030F811200221272000F0F6FB504804213D
:1052100030F81620272000F0EFFBE07910B3A078DB
:10522000042825D020220621272000F0E5FB282293
:105230002621272000F0FCFB4648E17800EB061011
:1052400050F821200821272000F0E3FB6089B0B14D
:1052500018E000E001E0012089E741F48001FF0847
:1052600001618EE764220621272000F0C5FBE3E7F9
:1052700010220621272000F0BFFB1022D8E741F2C0
:105280004100608182B22021272000F0B5FB324F1F
:105290000C2123203A6800F0BCFB07EB46000421F8
:1052A0008288232000F0A8FBA07950B1E0792B4937
:1052B0000A5C0021212000F0BBFB4FF003094FF0F6
:1052C000010805F00F00290740EA116062784FF4E9
:1052D000402101EA824108434FF4401202EA095199
:1052E00008434FF4003202EA4841084321794FF065
:1052F000F86202EA81510843617940EAC162002103
:105300001F2000F086FBA07861780843E179000453
:1053100040EA4132DBF800000021C260082000F0C2
:1053200078FB00F01DB8422200210D2000F080BB68
:105330002863000800000020AC620008CC6200086E
:10534000E4620008EA620008B4620008F86200083B
:105350000463000808630008EC620008F4620008B7
:1053600030BCBDE8C05FFFF7DEBF10B50446027871
:105370000B212A2000F05CFB62680021BDE8104090
:105380001E2000F046BB000070B500210E2000F08A
:1053900080F90446FFF7CFFE0546002211460E2095
:1053A00000F037FB402200210D2000F041FB0A4AAB
:1053B00000210F2000F02DFB00F00AFB2246002107
:1053C0000E2000F026FB2846FFF7B0FE0349002020
:1053D0000968487570BD0000F8FF27240000002010
:1053E00070B5584C05460026206806754675C6827D
:1053F0008662C6620663466300F066F952498842D7
:1054000001D0881770BDA80702D400F091FA02E01D
:1054100015F0F80F02D10020FFF796F904220021C1
:10542000242000F005FBA80710D40420FFF705FA9C
:1054300010F0FF0F18D0022212212D2000F0F8FAF0
:105440002068C18A41F48051C1820DE030212820BA
:1054500000F01FF9B0F1883F04D02068C18A41F400
:105460008051C18228070BD51E20FFF7E6F922687C
:1054700080B2010AD172A90709D4C10603D003E0A2
:105480002068C67203E01020C0B200F048FAE806B7
:1054900005D50620FFF7D1F92168086001E02068F2
:1054A0000660A80605D50720FFF7C7F92168486000
:1054B00001E020684660680605D50820FFF7BDF9C1
:1054C0002168087201E020680672280605D50920C7
:1054D000FFF7B3F92168487201E020684672A80717
:1054E0000FD4E80702D0FFF796F90CE0052136202B
:1054F00000F0C0F820F400720521362000F07CFA9C
:1055000006E0680704D42068C18A41F40061C182C2
:105510000120FFF719F900220A212C2000F088FA57
:105520000021042000F0B5F821680861C0F30140B3
:1055300088720021082000F0ACF82168C8600020C3
:1055400070BD0000000000203001CADE70B50021EF
:105550000F2000F09EF8454C05464FF000062168EC
:10556000C861400442D54FF4DE4200210F2000F014
:1055700050FA2068002180F82460102000F07AF8AA
:1055800023680146C0F309009A7A0AB900F07F0047
:105590001884080405D593F8240040F0010083F82E
:1055A0002400022200211120223300F091F8280764
:1055B0000FD5206890F8220080060AD40822002126
:1055C0000F2000F026FA2068C16921F00801C161AE
:1055D00046752068C16A09B11C3088472068007D83
:1055E00020B1012203210D2000F022FA280612D555
:1055F000F82200210F2000F00CFA280706D52068B9
:10560000407D18B1FFF7C0FE00F0BBF82068816A4A
:1056100009B11C30884715F4081F10D04FF4003230
:1056200000210F2000F0F5F920684675FFF7ACFE69
:1056300000F0A7F82068016B09B11C3088470C4ABC
:10564000154211D000210F2000F0E3F920684675C3
:10565000FFF79AFE00F095F82068416B002903D00F
:10566000BDE870401C30084770BD000000000020FD
:105670000090052408B589B280B26B46022200F082
:1056800027F89DF800009DF8011000EB012080B282
:1056900008BD38B5002489B280B26B46042200F000
:1056A00017F803216846425C491E02EB0424FAD530
:1056B000204638BD08B589B280B26B46012200F0A1
:1056C00007F89DF8000008BD00210846FFF7E1BF7C
:1056D00008B551B140F040008DF80000C8B27F29F4
:1056E00007D88DF8010002200BE08DF800000120A2
:1056F00007E040F080008DF80100C8098DF8020035
:105700000320694600F0F2FB08BD30B414460A4697
:105710002146034630BC1120FFF7DABF03460522BD
:1057200000211520FFF7D4BF0346052200211720D2
:10573000FFF7CEBF70B50446400701D400F048F92A
:105740004FF480752A46E00701D04FF440720021E3
:105750000D2000F051F9E00711D003210F20FFF7D1
:10576000A9FF00070BD5FFF70FFEA00704D42A46B8
:1057700000210D2000F040F94FF0FF3070BD0020F7
:1057800070BD10B5E0220321362000F051F9F0225F
:105790000321BDE81040362000F04AB910B5034C93
:1057A0002468283484E80F0010BD000000000020A9
:1057B000024601210A2000F02CB970B50E460446BD
:1057C000FFF7B9FC0546022E10D000210E20FFF78E
:1057D00060FF012E0CD0A043024600210E2000F0F5
:1057E00018F92846BDE87040FFF7A0BC2246F4E750
:1057F0002043F1E770B50446C0074FF000014FF0B9
:10580000260026D0FFF745FF20F4705040F4A05248
:105810000021262000F0FDF800213620FFF739FF97
:1058200040F404020021362000F0F3F84FF48875AC
:10583000A00700D50B4D28212A46362000F0E9F8B4
:10584000A0070DD52821AAB23620BDE8704000F08F
:10585000E0B8FFF71EFF20F4705200212620F4E785
:1058600070BD000010010F0010B5044600211A2081
:10587000FFF70FFFC4F313026FF31300024300217D
:10588000BDE810401A2000F0C4B8024641F60401F9
:105890002E2000F0B1B8000070B5064603210420A8
:1058A000FFF708FF0D4D04465EB1324600210C2083
:1058B00000F0A2F8286844F01002016941F080511C
:1058C00005E020F010022868016921F08051016193
:1058D000BDE870400321042000F0AAB800000020B9
:1058E00010B5044600210420FFF7D3FE08490968DB
:1058F000086114B120F4802001E040F480200861A8
:1059000002460021BDE81040042000F082B80000EB
:105910000000002002460021182000F06DB800F0C1
:105920001F0040F060020E212B2000F081B8000023
:1059300010B5FEF7FEFE002211462C2000F05CF8A8
:10594000002206212C2000F073F8FEF7D0FE002282
:105950000321362000F06CF80120FFF7E5FBF02270
:105960000321362000F064F80249002009684875D8
:1059700010BD00000000002010B500242146820761
:1059800004D5124B802101221B685A75C00714D020
:1059900041F0060200210D2000F04AF803210F20FB
:1059A000FFF768FE10F4816F0DD0402200210D201A
:1059B00000F03EF84FF0FF3405E041F00202002114
:1059C0000D2000F035F8204610BD0000000000203A
:1059D00010B503210F20FFF76DFE00F0800100F0ED
:1059E0004000B1EB400F06D001220321BDE810407A
:1059F0000D2000F01DB810BD08B589B28DF800204B
:105A0000120A8DF8012080B26B46022200F018F8CD
:105A100008BD38B500236C46E254120A5B1C042B07
:105A2000FADB89B280B22346042200F009F838BDBF
:105A300007B589B280B202AB012200F001F80EBDB9
:105A400008B551B140F0C0008DF80000C8B27F2900
:105A500009D88DF8010002200DE040F080008DF89B
:105A60000000012007E040F080008DF80100C80927
:105A70008DF802000320694600F0ECFB08BD10B56C
:105A800014460244B2F5806F07D80B46821E2146A9
:105A90000920FFF7D5FF002010BD4FF0FF3010BDEB
:105AA000890541EAC23204490968C96801430A43C9
:105AB00000210820FFF7ADBF0000002010B5002234
:105AC0000A60835CD400A3400C68521C23440B6022
:105AD000042AF6DB10BD10B500214254120A42EA36
